:020000040000FA
:04000000DFEF1AF024
:100800000044757479204379636C653A0020202098
:1008100020202020202000494E46004E414E0069F5
:100820006E66006E616E006C660030250025660005
:0108300000C7
:10083200000E00017B6F000E7A6F49C08CF04AC037
:100842008DF04BC08EF04CC08FF08FBF2DEF04F0B7
:100852002BEF04F043EF04F0000E7B6F010E7A6F72
:100862008CC001F08DC002F08EC003F08FC004F086
:100872007BEC1AF001C08CF002C08DF003C08EF048
:1008820004C08FF0000E0001936F000E926FD0C073
:100892007EF0D1C07FF07A517B11D8A453EF04F0DF
:1008A20055EF04F05CEF04F0D4A55AEF04F05CEFCE
:1008B20004F076EF04F07A517B11D8A463EF04F0D0
:1008C20065EF04F06BEF04F0000E616F2B0E606FAA
:1008D2006FEF04F0000E616F2D0E606F60C000F1CB
:1008E200924B932B7E07D8A07F078CC001F08DC05E
:1008F20002F08EC003F08FC004F0B0EC15F00104DA
:100902000210D8A487EF04F089EF04F0E0EF04F0BE
:10091200BF0E4E6EFF0E4F6E4D50506E516A4E50CE
:1009220050264F50512251500AE11A0E505CD8A065
:100932009DEF04F0A0EF04F0010EA1EF04F0000E11
:100942000001626F636B62516311D8B4ABEF04F0C4
:10095200ADEF04F0BBEF04F0000E9225016E010E24
:100962009321026E170E036E080E046E80EC19F0CE
:10097200C7EF04F0000E9225016E010E9321026E64
:100982001F0E036E080E046E80EC19F00001FD0EBE
:100992007E27FF0E7F2347C011F048C012F0000EE1
:1009A200136E010E146E7EC015F07FC016F0FFECC0
:1009B20016F011C047F012C048F044EF0AF08CC0A4
:1009C20001F08DC002F08EC003F08FC004F0B0ECD5
:1009D20015F001500210D8A4F1EF04F0F3EF04F087
:1009E20033EF05F0BF0E4E6EFF0E4F6E4D50506E40
:1009F200516A4E5050264F50512251500AE11A0E60
:100A0200505CD8A007EF05F00AEF05F0010E0BEFDE
:100A120005F0000E0001646F656B64516511D8B476
:100A220015EF05F017EF05F025EF05F0000E922502
:100A3200016E010E9321026E1B0E036E080E046EF0
:100A420080EC19F0C7EF04F0000E9225016E010E42
:100A52009321026E230E036E080E046E80EC19F0D1
:100A6200C7EF04F0000E0001946F000E956F800E28
:100A7200966F3F0E976F000E916F000E906F8CC0B5
:100A820001F08DC002F08EC003F08FC004F0000EA2
:100A9200056E000E066E000E076E000E086E1CEC50
:100AA20018F0D8B057EF05F059EF05F0DCEF05F07C
:100AB20078EF05F094C001F095C002F096C003F003
:100AC20097C004F0000E056E000E066E200E076E33
:100AD200410E086EA5EC0CF001C094F002C095F036
:100AE20003C096F004C097F00001904B912B8CC08C
:100AF2001AF08DC01BF08EC01CF08FC01DF0000ECE
:100B0200056E000E066E200E076E410E086E94C032
:100B120001F095C002F096C003F097C004F0A5EC76
:100B22000CF001C01EF002C01FF003C020F004C090
:100B320021F02EEC15F0D8B0A1EF05F0A3EF05F0EF
:100B42005BEF05F0C3EF05F094C01AF095C01BF0FF
:100B520096C01CF097C01DF0000E1E6E000E1F6E98
:100B6200200E206E410E216EBAEC0EF01AC094F0E7
:100B72001BC095F01CC096F01DC097F000019007B5
:100B8200D8A091078CC01AF08DC01BF08EC01CF04B
:100B92008FC01DF094C01EF095C01FF096C020F0CB
:100BA20097C021F02EEC15F0D8A0DAEF05F0DCEFBB
:100BB20005F0A5EF05F04DC007F0086AF2EC18F059
:100BC20007500001816F81C080F0670E8119D8A49F
:100BD200EDEF05F0EFEF05F015EF06F0D251D3116E
:100BE200D8A4F6EF05F0F8EF05F0FCEF05F0000EE3
:100BF200D36F010ED26FD3BF09EF06F0D35106E1D6
:100C0200D205D8B007EF06F009EF06F00FEF06F0B5
:100C1200000E7D6F060E7C6F1EEF06F0D2C07CF0D8
:100C2200D3C07DF01EEF06F0D3BF1AEF06F01CEF23
:100C320006F009EF06F00FEF06F0670E8119D8A44F
:100C420025EF06F027EF06F056EF06F091AF35EFED
:100C520006F0FC0E905DFF0E9159D8A033EF06F01E
:100C620035EF06F054EF06F0FF0E4E6EFF0E4F6E9C
:100C72007CC050F07DC051F04E5050264F50512252
:100C82009051505C5150800A526E9151800A5258D4
:100C9200D8A04EEF06F050EF06F054EF06F0660EC5
:100CA200806F56EF06F0650E806F7CC072F07DC0DB
:100CB20073F0670E8119D8A461EF06F063EF06F0B6
:100CC20073EF06F0660E8019D8A46AEF06F06CEF97
:100CD20006F075EF06F091BF73EF06F071EF06F0C4
:100CE20075EF06F0724B732B660E8019D8A47CEF59
:100CF20006F07EEF06F09EEF06F091BF85EF06F05C
:100D020083EF06F091EF06F0000E946F000E956FE0
:100D1200800E966F3F0E976F000E916F000E906FD0
:100D2200670E8119D8B498EF06F09AEF06F09EEF9D
:100D320006F09051722791517323000E8B6F000EB3
:100D42008A6F8CC082F08DC083F08EC084F08FC019
:100D520085F094C074F095C075F096C076F097C097
:100D620077F02FEF07F082C01AF083C01BF084C027
:100D72001CF085C01DF094C01EF095C01FF096C0F7
:100D820020F097C021F0BAEC0EF01AC033F01BC06D
:100D920034F01CC035F01DC036F02CEC12F033C01C
:100DA20086F034C087F035C088F036C089F086C03E
:100DB20001F087C002F088C003F089C004F0ABECF8
:100DC20014F001C078F002C079F082C01AF083C03A
:100DD2001BF084C01CF085C01DF094C005F095C0C6
:100DE20006F096C007F097C008F086C001F087C0F1
:100DF20002F088C003F089C004F0A5EC0CF001C039
:100E02001EF002C01FF003C020F004C021F0FDEC70
:100E120019F01AC082F01BC083F01CC084F01DC000
:100E220085F094C01AF095C01BF096C01CF097C0D4
:100E32001DF0000E1E6E000E1F6E200E206E410E63
:100E4200216EBAEC0EF01AC094F01BC095F01CC0D3
:100E520096F01DC097F000018A4B8B2B72518A5D70
:100E62008B51800A4E6E7351800A4E58D8A03CEFC7
:100E720007F03EEF07F0B4EF06F094C001F095C022
:100E820002F096C003F097C004F0000E056E000E4B
:100E9200066EA00E076E400E086EA5EC0CF001C0A7
:100EA20086F002C087F003C088F004C089F082C0D7
:100EB2001AF083C01BF084C01CF085C01DF086C0F0
:100EC2001EF087C01FF088C020F089C021F02EECF0
:100ED20015F0D8B06FEF07F071EF07F07CEF07F075
:100EE200000E0001866F000E876F000E886F000EE5
:100EF200896FA5EF07F082C001F083C002F084C0C1
:100F020003F085C004F086C005F087C006F088C0F3
:100F120007F089C008F01CEC18F0D8A093EF07F096
:100F220095EF07F0A5EF07F0000178B19BEF07F00E
:100F32009DEF07F0A5EF07F0000E866F000E876F9A
:100F4200000E886F000E896F8CC001F08DC002F018
:100F52008EC003F08FC004F086C005F087C006F093
:100F620088C007F089C008F045EC0AF001C082F0A1
:100F720002C083F003C084F004C085F082C01AF07E
:100F820083C01BF084C01CF085C01DF0000E056EEE
:100F9200000E066E200E076E410E086E74C001F040
:100FA20075C002F076C003F077C004F0A5EC0CF037
:100FB20001C01EF002C01FF003C020F004C021F0E7
:100FC2002EEC15F0D8A0E8EF07F0EAEF07F013EFE8
:100FD20008F00001904B912B74C001F075C002F033
:100FE20076C003F077C004F0000E056E000E066EA8
:100FF200200E076E410E086EA5EC0CF001C074F0D5
:1010020002C075F003C076F004C077F0660E0001EE
:101012008019D8A40FEF08F011EF08F013EF08F0D1
:10102200724B732B74C094F075C095F076C096F035
:1010320077C097F0650E00018019D8B423EF08F04D
:1010420025EF08F02BEF08F090C070F091C071F01E
:101052002FEF08F0000E716F000E706F000E6F6FB1
:10106200000E6E6F000E6D6F000E6C6F000E8B6FB8
:10107200000E8A6F2AEF09F082C01AF083C01BF0BB
:1010820084C01CF085C01DF094C01EF095C01FF0F6
:1010920096C020F097C021F0BAEC0EF01AC033F0DF
:1010A2001BC034F01CC035F01DC036F02CEC12F021
:1010B20033C086F034C087F035C088F036C089F07E
:1010C20086C001F087C002F088C003F089C004F036
:1010D200ABEC14F001C078F002C079F00001D4B991
:1010E20075EF08F077EF08F094EF08F07851791176
:1010F200D8A47EEF08F080EF08F094EF08F0670EB6
:101102008119D8A487EF08F089EF08F094EF08F06E
:1011120071BF90EF08F08EEF08F094EF08F06C4B7F
:101122006D2BDEEF08F06E516F11D8A49BEF08F023
:101132009DEF08F0C7EF08F071BFA4EF08F0A2EF2F
:1011420008F0C7EF08F0000E9225D96E010E932128
:10115200DA6E2E0EDF6E924B932B7E07D8A07F079E
:10116200000E6F6F010E6E6FC7EF08F0000E922532
:10117200D96E010E9321DA6E300EDF6E924B932BF5
:101182007E07D8A07F076C07D8A06D076C516D1140
:10119200D8A4CEEF08F0D0EF08F0B7EF08F0000EB9
:1011A2009225D96E010E9321DA6E7851300FDF6EDF
:1011B200924B932B7E07D8A07F0782C01AF083C080
:1011C2001BF084C01CF085C01DF094C005F095C0D2
:1011D20006F096C007F097C008F086C001F087C0FD
:1011E20002F088C003F089C004F0A5EC0CF001C045
:1011F2001EF002C01FF003C020F004C021F0FDEC7D
:1012020019F01AC082F01BC083F01CC084F01DC00C
:1012120085F094C01AF095C01BF096C01CF097C0E0
:101222001DF0000E1E6E000E1F6E200E206E410E6F
:10123200216EBAEC0EF01AC094F01BC095F01CC0DF
:1012420096F01DC097F000017007D8A071078A4B75
:101252008B2B72518A5D8B51800A4E6E7351800ABC
:101262004E58D8B037EF09F039EF09F047EF09F0DF
:1012720093BF45EF09F0935109E14B0E925DD8A05F
:1012820045EF09F047EF09F03DEF08F06E516F119D
:10129200D8A44EEF09F050EF09F061EF09F0D4A99C
:1012A20055EF09F057EF09F061EF09F0000E9225B2
:1012B200D96E010E9321DA6E2E0EDF6E924B932BB6
:1012C200000E9225D96E010E9321DA6E000EDF6EAA
:1012D200650E8019D8A470EF09F072EF09F0CCEF17
:1012E20004F0000E8B6F4F0E8A6F000E8A25D96EA6
:1012F200010E8B21DA6E000EDF6E000E7B6F000E88
:101302007A6F91BF89EF09F087EF09F091EF09F049
:10131200000E7B6F010E7A6F906D911FD8B0912BEA
:10132200000E7D6F020E7C6FC2EF09F08A07D8A013
:101332008B07000E8A25D96E010E8B21DA6E90C0C2
:1013420001F091C002F0000E046E0A0E036EC4ECAE
:1013520017F00150300FDF6E90C001F091C002F023
:10136200000E046E0A0E036E62EC17F001C090F0DC
:1013720002C091F000017C07D8A07D077E07D8A0AB
:101382007F0790519111D8A4C9EF09F0CBEF09F072
:1013920097EF09F07DBFD8EF09F07D5106E17C059A
:1013A200D8B0D6EF09F0D8EF09F097EF09F08A0725
:1013B200D8A08B077A517B11D8A4E2EF09F0E4EFB1
:1013C20009F0EAEF09F0000E676F2B0E666FEEEF81
:1013D20009F0000E676F2D0E666F000E8A25D96E1A
:1013E200010E8B21DA6E66C0DFFF7E07D8A07F0771
:1013F2008A07D8A08B07BF0E4E6EFF0E4F6E4D5060
:10140200506E516A4E5050264F50512251500AE1AF
:101412001A0E505CD8A010EF0AF013EF0AF0010E7A
:1014220014EF0AF0000E6A6F6B6B6A516B11D8A44D
:101432001DEF0AF01FEF0AF025EF0AF0000E696FA8
:10144200650E686F29EF0AF0000E696F450E686F2E
:10145200000E8A25D96E010E8B21DA6E68C0DFFF7D
:101462007E07D8A07F07000E9225016E010E932100
:10147200026E000E8A25036E010E8B21046E80EC33
:1014820019F0CCEF04F012000450800B0D6E0450E2
:1014920004240F6E03AE50EF0AF052EF0AF053EF3E
:1014A2000AF00F800F50D8B459EF0AF05BEF0AF040
:1014B20070EF0AF00F28D8A461EF0AF063EF0AF088
:1014C2006BEF0AF0000E016E000E026E000E036E4C
:1014D200000E046E038E000E046E78EF0AF0000E0A
:1014E200016E000E026E000E036E000E046E0850B6
:1014F200800B0E6E0D500E18D8B482EF0AF084EFF6
:101502000AF085EF0AF00D8C085008240E6E07AE23
:101512008DEF0AF08FEF0AF090EF0AF00E800E5076
:10152200D8B496EF0AF098EF0AF0ADEF0AF00E2861
:10153200D8A49EEF0AF0A0EF0AF0A8EF0AF0000E7E
:10154200056E000E066E000E076E000E086E078E08
:10155200000E086EB5EF0AF0000E056E000E066E64
:10156200000E076E000E086E0F500E5CD8B0BCEF76
:101572000AF0BEEF0AF0E5EF0AF00DACC3EF0AF095
:10158200C5EF0AF0C7EF0AF0800E0D1A0FC010F077
:101592000EC00FF010C00EF001C010F005C001F037
:1015A20010C005F002C010F006C002F010C006F034
:1015B20003C010F007C003F010C007F004C010F021
:1015C20008C004F010C008F0000E106E0F500EC0DC
:1015D20009F00A6A095E000E0A5A0ABEFAEF0AF018
:1015E2000A5009E11A0E095CD8A0FAEF0AF0FCEFE2
:1015F2000AF033EF0BF00150021003100410D8A4CC
:1016020005EF0BF008EF0BF0010E09EF0BF0000EE7
:10161200106E000E016E000E026E000E036E000EC2
:10162200046E0EC00FF03CEF0BF010A01BEF0BF09E
:101632001DEF0BF023EF0BF0D89010300109106E64
:1016420025EF0BF0D890103201A02AEF0BF02CEF0F
:101652000BF02DEF0BF0108E043404320332023201
:1016620001320F2A0E500F5CD8A03AEF0BF03CEF7C
:101672000BF016EF0BF00DBC41EF0BF043EF0BF04C
:1016820083EF0BF00F50D8A449EF0BF04BEF0BF0A8
:1016920055EF0BF0000E016E000E026E000E036E8F
:1016A200000E046EA4EF0CF0055001260650022233
:1016B200075003220850042204A062EF0BF064EFEB
:1016C2000BF010EF0CF010A069EF0BF06BEF0BF0CA
:1016D20071EF0BF0D89010300109106E73EF0BF020
:1016E200D890103201A078EF0BF07AEF0BF07BEF7D
:1016F2000BF0108E043404320332023201320F2A0C
:1017020010EF0CF00550015C0650025807500358C8
:101712000450800A096E0850800A0958D8B094EF24
:101722000BF096EF0BF0C1EF0BF00150055C096E68
:10173200025006580A6E035007580B6E04500858A0
:101742000C6EFF0E0924016EFF0E0A20026EFF0EC0
:101752000B20036EFF0E0C20046E800E0D1A106C0F
:101762001050D8A4B7EF0BF0B9EF0BF0C9EF0BF0A4
:10177200010E0126000E022203220422C9EF0BF001
:101782000550015E0650025A0750035A0850045A87
:101792000150021003100410D8A4D2EF0BF0D4EFC2
:1017A2000BF009EF0CF01050D8A4DAEF0BF0DCEFDD
:1017B2000BF009EF0CF0000E016E000E026E000E2F
:1017C200036E000E046EA4EF0CF0D89001360236C0
:1017D2000336043610AEF0EF0BF0F2EF0BF0F3EF3E
:1017E2000BF0018010A0F8EF0BF0FAEF0BF0FEEF18
:1017F2000BF0D880103600EF0CF0D89010360F5056
:10180200D8B406EF0CF008EF0CF009EF0CF00F065D
:1018120003AE0EEF0CF010EF0CF0E6EF0BF0000E43
:101822000E6E10AE17EF0CF019EF0CF031EF0CF05A
:1018320010C009F07F0E0916D8B422EF0CF024EF85
:101842000CF028EF0CF0010E0E6E31EF0CF001A03F
:101852002DEF0CF02FEF0CF031EF0CF024EF0CF029
:101862000E50D8B437EF0CF039EF0CF064EF0CF0F7
:10187200010E0126000E02220322042204A044EFDC
:101882000CF046EF0CF064EF0CF001C009F002C05E
:101892000AF003C00BF004C00CF00C340C320B3213
:1018A2000A32093209C001F00AC002F00BC003F08B
:1018B2000CC004F00F28D8B461EF0CF063EF0CF009
:1018C20064EF0CF00F2A0F28D8B46AEF0CF06CEF1B
:1018D2000CF074EF0CF00F50D8A472EF0CF074EF10
:1018E2000CF086EF0CF0000E016E000E026E000E80
:1018F200036E000E046E0F50D8A482EF0CF084EF3A
:101902000CF086EF0CF0000E0D6E0FA08BEF0CF0BA
:101912008DEF0CF090EF0CF0038E91EF0CF0039E24
:10192200D8900F30046E0DAE99EF0CF09BEF0CF0D7
:101932009CEF0CF0048E01C001F002C002F003C063
:1019420003F004C004F012000450800B0D6E04502A
:101952000424136E03AEB0EF0CF0B2EF0CF0B3EF51
:101962000CF013801350D8B4B9EF0CF0BBEF0CF0AD
:10197200CEEF0CF01328D8A4C1EF0CF0C3EF0CF09B
:10198200CBEF0CF0000E016E000E026E000E036E25
:10199200000E046E038ED6EF0CF0000E016E000EE8
:1019A200026E000E036E000E046E0850800B0D1ABC
:1019B20008500824126E07AEE1EF0CF0E3EF0CF0D2
:1019C200E4EF0CF012801250D8B4EAEF0CF0ECEF16
:1019D2000CF0FFEF0CF01228D8A4F2EF0CF0F4EFA9
:1019E2000CF0FCEF0CF0000E056E000E066E000E01
:1019F200076E000E086E078E07EF0DF0000E056EE3
:101A0200000E066E000E076E000E086E1250D8B45D
:101A12000DEF0DF00FEF0DF017EF0DF01350D8A4EE
:101A220015EF0DF017EF0DF021EF0DF0000E016E26
:101A3200000E026E000E036E000E046EB9EF0EF081
:101A420007500102F3CF18F0F4CF19F018500E6EC0
:101A52000F6A106A116A1950146E156A166A176AAB
:101A620006500202F3CF18F0F4CF19F018500E26E8
:101A7200000E0F221022112219501426000E1522D8
:101A82001622172205500302F3CF18F0F4CF19F0F3
:101A920018500E26000E0F22102211221950142661
:101AA200000E15221622172210C011F00FC010F0DE
:101AB2000EC00FF00E6A05500202F3CF18F0F4CFF9
:101AC20019F018500E2619500F22000E1022000E87
:101AD200112206500102F3CF18F0F4CF19F018507A
:101AE2000E2619500F22000E1022000E112210C0D5
:101AF20011F00FC010F00EC00FF00E6A0550010277
:101B0200F3CF18F0F4CF19F018500E2619500F2207
:101B1200000E1022000E112207500202F3CF18F01D
:101B2200F4CF19F01850142619501522000E16225F
:101B3200000E172206500302F3CF18F0F4CF19F06B
:101B42001850142619501522000E1622000E1722C4
:101B520007500302F3CF18F0F4CF19F01850096EB2
:101B620019500A6E0B6A0C6A0BC00CF00AC00BF01B
:101B720009C00AF0096A095014260A5015220B50AE
:101B820016220C5017220EC009F00FC00AF010C026
:101B92000BF011C00CF0190ED4EF0DF0D8900C32EE
:101BA2000B320A320932E82ECFEF0DF0095014261B
:101BB2000A5015220B5016220C50172210C011F099
:101BC2000FC010F00EC00FF00E6A125013C009F0D1
:101BD2000A6A0926000E0A22820E0924186EFF0ED6
:101BE2000A20196E0AEF0EF0D89014361536163602
:101BF200173611AEFFEF0DF001EF0EF002EF0EF00F
:101C02001480D8900E360F36103611361806D8A02A
:101C1200190616AE0FEF0EF011EF0EF0F5EF0DF004
:101C2200000E126E11AE18EF0EF01AEF0EF03EEF2C
:101C32000EF0FF0E0E14096EFF0E0F140A6EFF0E49
:101C420010140B6E7F0E11140C6E09500A100B103B
:101C52000C10D8B42FEF0EF031EF0EF035EF0EF07E
:101C6200010E126E3EEF0EF014A03AEF0EF03CEFB2
:101C72000EF03EEF0EF031EF0EF01250D8B444EFFA
:101C82000EF046EF0EF06AEF0EF0010E1426000E73
:101C920015221622172217A051EF0EF053EF0EF065
:101CA2006AEF0EF014C009F015C00AF016C00BF06E
:101CB20017C00CF00C340C320B320A32093209C054
:101CC20014F00AC015F00BC016F00CC017F0184A39
:101CD200192A19BE75EF0EF0195008E11828D8A07C
:101CE20075EF0EF077EF0EF081EF0EF0000E146E2E
:101CF200000E156E800E166E7F0E176EAFEF0EF091
:101D020019BE8EEF0EF0195006E11804D8B08CEF10
:101D12000EF08EEF0EF09AEF0EF0000E146E000E23
:101D2200156E000E166E000E176E000E0D6EAFEFE2
:101D32000EF018C013F0FF0E1416FF0E15167F0ECC
:101D42001616000E171613A0A9EF0EF0ABEF0EF049
:101D5200ACEF0EF0168ED8901330176E0D5017128E
:101D620014C001F015C002F016C003F017C004F051
:101D720012001D50800B2A6E1D501D24316E1CAEA8
:101D8200C5EF0EF0C7EF0EF0C8EF0EF03180315004
:101D9200D8B4CEEF0EF0D0EF0EF0E5EF0EF0312812
:101DA200D8A4D6EF0EF0D8EF0EF0E0EF0EF0000E52
:101DB2001A6E000E1B6E000E1C6E000E1D6E1C8E27
:101DC200000E1D6EEDEF0EF0000E1A6E000E1B6E71
:101DD200000E1C6E000E1D6E2150800B2A1A21501F
:101DE2002124326E20AEF8EF0EF0FAEF0EF0FBEF88
:101DF2000EF032803250D8B401EF0FF003EF0FF043
:101E020018EF0FF03228D8A409EF0FF00BEF0FF004
:101E120013EF0FF0000E1E6E000E1F6E000E206EEE
:101E2200000E216E208E000E216E20EF0FF0000EAC
:101E32001E6E000E1F6E000E206E000E216E1E50D2
:101E42001F1020102110D8A429EF0FF02BEF0FF054
:101E520043EF0FF0000E1A6E000E1B6E000E1C6E8A
:101E6200000E1D6E800E1C127F0E1D122A501D12B6
:101E72001AC01AF01BC01BF01CC01CF01DC01DF0C4
:101E820086EF10F03150D8A449EF0FF04BEF0FF06E
:101E920055EF0FF0000E1A6E000E1B6E000E1C6E38
:101EA200000E1D6E86EF10F0325031C022F0236A10
:101EB200225E000E235A7F0E22242B6E000E232058
:101EC2002C6E1AC026F01BC027F01CC028F01DC0C3
:101ED20029F0000E1A6E000E1B6E000E1C6E000E14
:101EE2001D6E000E2D6E000E2E6E000E2F6E000E59
:101EF200306E000E326EB6EF0FF03250D8B484EF6F
:101F02000FF086EF0FF09DEF0FF0D89026362736B0
:101F120028362936D8901A361B361C361D3630AE76
:101F220095EF0FF097EF0FF098EF0FF01A80D8901F
:101F32002D362E362F3630361E50265C1F5027582F
:101F42002050285821502958D8A0AAEF0FF0ACEF02
:101F52000FF0B5EF0FF0308C1E50265E1F50275A3F
:101F62002050285A2150295A322A190E3264BCEFC5
:101F72000FF0BEEF0FF07EEF0FF026502710281063
:101F82002910D8B4C7EF0FF0C9EF0FF0E1EF0FF04F
:101F92002D80E1EF0FF0D8901A361B361C361D3615
:101FA20030AED6EF0FF0D8EF0FF0D9EF0FF01A8066
:101FB200D8902D362E362F3630362B06D8A02C064A
:101FC2001CAEE6EF0FF0E8EF0FF0CCEF0FF0000ED3
:101FD200326E30AEEFEF0FF0F1EF0FF015EF10F0C1
:101FE200FF0E2D14226EFF0E2E14236EFF0E2F14E1
:101FF200246E7F0E3014256E2250231024102510DB
:10200200D8B406EF10F008EF10F00CEF10F0010E4C
:10201200326E15EF10F01AA011EF10F013EF10F05E
:1020220015EF10F008EF10F03250D8B41BEF10F09B
:102032001DEF10F041EF10F0010E1A26000E1B22C8
:102042001C221D221DA028EF10F02AEF10F041EFF4
:1020520010F01AC022F01BC023F01CC024F01DC0D7
:1020620025F02534253224322332223222C01AF0BE
:1020720023C01BF024C01CF025C01DF02B4A2C2AC3
:102082002CBE4CEF10F02C5008E12B28D8A04CEFBE
:1020920010F04EEF10F059EF10F0000E2C6E2B687E
:1020A200000E1A6E000E1B6E000E1C6E000E1D6ED0
:1020B2002CBE66EF10F02C5006E12B04D8B064EF72
:1020C20010F066EF10F074EF10F0000E2C6E000EA0
:1020D2002B6E000E1A6E000E1B6E000E1C6E000E92
:1020E2001D6E000E2A6E2BC031F031A07BEF10F076
:1020F2007DEF10F080EF10F01C8E81EF10F01C9E2F
:10210200D89031301D6E37EF0FF0120055C0D9FF55
:1021120056C0DAFFDECFF6FFDDCFF7FF0800F5503D
:10212200250AD8A497EF10F099EF10F010EF12F0F3
:1021320055C0D9FF56C0DAFFDE2A000EDD22000E9E
:102142000001D16F000ED06FD0C0D4F0D1C0D5F055
:10215200D269D36955C0D9FF56C0DAFFDECFF6FF88
:10216200DDCFF7FF0800F550076E086AF2EC18F0B1
:10217200075000019E6F9E51D8B4C2EF10F0C4EF19
:1021820010F0FEEF10F055C0D9FF56C0DAFFDECFD7
:1021920059F0DDCF5AF0010E5926000E5A2259C0CD
:1021A200F6FF5AC0F7FF0800F550076E086AF2EC16
:1021B20018F0075000019F6F9F51D8B4E3EF10F061
:1021C200E5EF10F0FEEF10F055C0D9FF56C0DAFF70
:1021D200DECF59F0DDCF5AF0020E5926000E5A22F8
:1021E20059C0F6FF5AC0F7FF0800F550076E086A9B
:1021F200F2EC18F007500001A06F660E9E19D8A4E9
:1022020005EF11F007EF11F047EF11F055C0D9FFBC
:1022120056C0DAFFDECFF6FFDDCFF7FF0800F5CFBD
:10222200A1F055C0D9FF56C0DAFFDE2A000EDD222A
:1022320057C0D9FF58C0DAFFDFCF59F0040EDE26AF
:10224200DFCF5AF0000EDD2259C0D9FF5AC0DAFFA3
:10225200DECF9AF0DECF9BF0DECF9CF0DECF9DF09A
:1022620053C047F054C048F09AC049F09BC04AF0AE
:102272009CC04BF09DC04CF0A1C04DF019EC04F095
:1022820047C053F048C054F02BEF12F09E0E016E7F
:10229200000E026E270E036E080E046E000E066E0E
:1022A200020E056E2FEC16F001500210D8A45CEF5E
:1022B20011F05EEF11F0DAEF11F055C0D9FF56C000
:1022C200DAFFDECF59F0DDCF5AF0010E5926000EAB
:1022D2005A2259C0F6FF5AC0F7FF0800F5CFA1F005
:1022E200BF0E596EFF0E5A6E55C0D9FF56C0DAFFA7
:1022F200DECFF6FFDDCFF7FF0800F5505B6E5C6ABC
:1023020059505B265A505C225C500AE11A0E5B5C03
:10231200D8A08EEF11F091EF11F0010E92EF11F0B3
:10232200000E0001986F996B98519911D8B49CEFE7
:1023320011F09EEF11F0B8EF11F057C0D9FF58C05D
:10234200DAFFDFCF59F0040EDE26DFCF5AF0000E9F
:10235200DD2259C0D9FF5AC0DAFFDECF9AF0DECFB4
:102362009BF0DECF9CF0DECF9DF0D0EF11F057C096
:10237200D9FF58C0DAFFDFCF59F0040EDE26DFCFD7
:102382005AF0000EDD2259C0D9FF5AC0DAFFDECF63
:102392009AF0DECF9BF0DECF9CF0DECF9DF0020EF6
:1023A20055C0D9FF56C0DAFFDE26000EDD2231EF1E
:1023B20011F055C0D9FF56C0DAFFDECFF6FFDDCFF0
:1023C200F7FF0800F550250AD8A4EAEF11F0ECEF68
:1023D20011F003EF12F055C0D9FF56C0DAFFDE2A22
:1023E200000EDD22000E026E250E016E53C003F0B8
:1023F20054C004F09AEC16F0000E546E010E536EA7
:102402002BEF12F055C0D9FF56C0DAFFDE2A000EBC
:10241200DD22000E546E000E536E2BEF12F055C0EB
:10242200D9FF56C0DAFFDECFF6FFDDCFF7FF080097
:10243200F550016E026A53C003F054C004F09AECE6
:1024420016F055C0D9FF56C0DAFFDE2A000EDD2293
:10245200FDEF11F01200C6C043F0C7C044F0C8C07F
:1024620045F0C9C046F033C043F034C044F035C033
:1024720045F036C046F0810E376EFF0E386E43C00F
:1024820039F044C03AF045C03BF046C03CF0180E6B
:1024920050EF12F0D8903C323B323A323932E82EC9
:1024A2004BEF12F039503724416E000E3820426E45
:1024B20042BE65EF12F0425009E1170E415CD8A00E
:1024C20065EF12F067EF12F071EF12F033C033F0E4
:1024D20034C034F035C035F036C036F034EF13F086
:1024E20042BE76EF12F078EF12F0E8EF12F041C040
:1024F20037F0FF0E386EFF0E396E7F0E3A6E000E09
:102502003B6E376687EF12F08FEF12F03B343B32AF
:102512003A3239323832372E82EF12F038C03DF07B
:1025220039C03EF03AC03FF03BC040F03D5043144A
:10253200376E3E504414386E3F504514396E405049
:1025420046143A6E3750381039103A10D8A4ACEF0E
:1025520012F0AEEF12F0B0EF12F067EF12F043C0DC
:1025620037F044C038F045C039F046C03AF0200E8A
:10257200C0EF12F0D8903A32393238323732E82E80
:10258200BBEF12F03750381039103A10D8B4CCEFF4
:1025920012F0CEEF12F0D6EF12F03D5043263E502D
:1025A20044223F504522405046223D1C376E3E1C7D
:1025B200386E3F1C396E401C3A6E37504316385005
:1025C2004416395045163A5046162CEF13F043C0C4
:1025D20037F044C038F045C039F046C03AF0200E1A
:1025E200F8EF12F0D8903A32393238323732E82ED8
:1025F200F3EF12F03750381039103A10D8A404EF24
:1026020013F006EF13F010EF13F0000E436E000EFE
:10261200446E000E456E000E466E2CEF13F0D890FD
:102622004334376E4434386E4534396E46343A6E2C
:102632003750381039103A10D8B422EF13F024EF83
:1026420013F02CEF13F0000E436E000E446E800E5A
:10265200456EBF0E466E43C033F044C034F045C0F1
:1026620035F046C036F01200096E0950D8B43CEF7E
:1026720013F03EEF13F060EF13F004BE45EF13F0DA
:1026820043EF13F060EF13F001C005F002C006F053
:1026920003C007F004C008F0051E061E071E081E30
:1026A200052A000E06220722082205C00BF006C0EA
:1026B2000CF007C00DF008C00EF068EF13F001C077
:1026C2000BF002C00CF003C00DF004C00EF001507C
:1026D200021003100410D8A471EF13F073EF13F07B
:1026E2007DEF13F0000E016E000E026E000E036EFF
:1026F200000E046E0EEF14F0960E0A6E87EF13F0C2
:102702000A2AD8900E320D320C320B32000E0B1404
:10271200056E000E0C14066E000E0D14076EFE0EF2
:102722000E14086E0550061007100810D8A49CEF6E
:1027320013F09EEF13F081EF13F0ACEF13F00A2ABF
:10274200010E0B26000E0C220D220E22D8900E3204
:102752000D320C320B32000E0B14056E000E0C14EF
:10276200066E000E0D14076EFF0E0E14086E055055
:10277200061007100810D8A4C1EF13F0C3EF13F02E
:10278200A0EF13F0CBEF13F00A06D8900B360C36FD
:102792000D360E360DBED0EF13F0D2EF13F0DAEF96
:1027A20013F0020E0A60D8EF13F0DAEF13F0C5EF60
:1027B20013F00AB0DFEF13F0E1EF13F0E2EF13F0E2
:1027C2000D9ED8900A320AC005F0066A076A086AA6
:1027D20005C008F0076A066A056A05500B12065022
:1027E2000C1207500D1208500E120950D8B4FCEF0B
:1027F20013F0FEEF13F006EF14F004BE05EF14F031
:1028020003EF14F006EF14F00E8E0BC001F00CC0B3
:1028120002F00DC003F00EC004F01200C280C282AA
:10282200A3EF14F0000E0001C26F000EC36F000E82
:10283200C46F000EC56FC450BB6FBA6BC350BC6F80
:10284200BD6BBA51BC27BB51BD23BCC001F0BDC09A
:1028520002F0000E02BEFF0E036E046E010E35EC96
:1028620013F001C0BEF002C0BFF003C0C0F004C04C
:10287200C1F0000E056E000E066EC80E076E420E07
:10288200086EBEC001F0BFC002F0C0C003F0C1C0FC
:1028920004F0A5EC0CF001C01AF002C01BF003C05A
:1028A2001CF004C01DF0000E1E6EC00E1F6E7F0EC7
:1028B200206E440E216EBAEC0EF01AC0C2F01BC09C
:1028C200C3F01CC0C4F01DC0C5F0C2C001F0C3C03B
:1028D20002F0C4C003F0C5C004F0ABEC14F001C0B8
:1028E200DAF002C0DBF0DC0E0001A86F000EA96F67
:1028F2002D0EAA6F080EAB6FC2C0ACF0C3C0ADF014
:10290200C4C0AEF0C5C0AFF0AEEC19F0000E046E5C
:10291200000E036E000E066E020E056ED7EC19F065
:10292200DC0E036E000E046E51EC19F02B0E036EDA
:10293200080E046E51EC19F00D0E036E080E046EB3
:1029420051EC19F0C2B2A8EF14F0AAEF14F013EF91
:1029520014F01200033404340A6E0A50D8A4B4EFFF
:1029620014F0B6EF14F0C0EF14F0000E016E000E7A
:10297200026E000E036E000E046E2DEF15F001C004
:1029820005F002C006F003C007F004C008F0200EF4
:10299200D0EF14F0D8900832073206320532E82E12
:1029A200CBEF14F00550096E038EFF0E0116FF0ED9
:1029B2000216FF0E0316000E0416960E0A5E0ABEDB
:1029C200E7EF14F0E5EF14F0FDEF14F00A50800A7F
:1029D200970FD8B0EFEF14F0F1EF14F0F3EF14F01B
:1029E200B6EF14F0D89004320332023201320A3EBA
:1029F200F3EF14F015EF15F01F0E0A6403EF15F054
:102A020005EF15F00DEF15F0B6EF14F0D890013682
:102A12000236033604360A060A50D8A413EF15F01C
:102A220015EF15F007EF15F00950D8B41BEF15F0AC
:102A32001DEF15F025EF15F0041E031E021E016C9A
:102A4200000E02220322042201C001F002C002F0A1
:102A520003C003F004C004F01200000E1A14226E28
:102A6200000E1B14236E800E1C14246E7F0E1D1488
:102A7200256E2250231024102510D8A443EF15F000
:102A820045EF15F04DEF15F0000E1A6E000E1B6E9D
:102A9200000E1C6E000E1D6E000E1E14226E000E25
:102AA2001F14236E800E2014246E7F0E2114256EB7
:102AB2002250231024102510D8A462EF15F064EFE1
:102AC20015F06CEF15F0000E1E6E000E1F6E000E5C
:102AD200206E000E216E1DAE71EF15F073EF15F032
:102AE2007CEF15F01A6C1B1ED8B01B2A1C1ED8B026
:102AF2001C2A800E1D5621AE81EF15F083EF15F0D2
:102B02008CEF15F01E6C1F1ED8B01F2A201ED8B0E5
:102B1200202A800E2156000E1A1A000E1B1A000ED1
:102B22001C1A800E1D1A000E1E1A000E1F1A000E0D
:102B3200201A800E211A1E501A5C1F501B5820505A
:102B42001C5821501D58D8B0A9EF15F0ABEF15F065
:102B5200AEEF15F0D890AFEF15F0D8801200CAC0D2
:102B62000BF0CBC00CF0CCC00DF0CDC00EF001C00C
:102B72000BF002C00CF003C00DF004C00EF00BC04D
:102B820005F00CC006F00DC007F00EC008F0180EDC
:102B9200D0EF15F0D8900832073206320532E82E0F
:102BA200CBEF15F00550096E0A6A09500A10D8A435
:102BB200DDEF15F0DFEF15F0FFEF15F0D8900B34D5
:102BC200056E0C34066E0D34076E0E34086E055019
:102BD200061007100810D8A4F1EF15F0F3EF15F066
:102BE200F9EF15F0000E026E020E016E2EEF16F0D6
:102BF200000E026E030E016E2EEF16F009280A1067
:102C0200D8A406EF16F008EF16F02AEF16F00BC064
:102C120005F00CC006F00DC007F00EC008F0090E5A
:102C2200D8900536063607360836E82E11EF16F02C
:102C32000550061007100810D8B422EF16F025EF41
:102C420016F0010E26EF16F0000E016E026A2EEF4C
:102C520016F0000E026E040E016E120001C008F0A2
:102C620002C009F003C00AF004C00BF00506D8A0A8
:102C72000606052806E10628D8A442EF16F044EF1E
:102C820016F051EF16F0000E026E000E016E99EF73
:102C920016F0084A092A0A4A0B2A0506D8A006068F
:102CA20008C0D9FF09C0DAFFDF50D8B45BEF16F0D5
:102CB2005DEF16F088EF16F00AC0F6FF0BC0F7FFC3
:102CC2000800F5500009D8B469EF16F06BEF16F062
:102CD20088EF16F005500610D8B472EF16F074EFB4
:102CE20016F088EF16F008C0D9FF09C0DAFFDF50EE
:102CF200076E0AC0F6FF0BC0F7FF0800F550071871
:102D0200D8B486EF16F088EF16F04AEF16F008C036
:102D1200D9FF09C0DAFFDF50076E0AC0F6FF0BC009
:102D2200F7FF0800F550075C016E026AD8A00206A0
:102D3200120003500410D8B4A1EF16F0A3EF16F05E
:102D4200ACEF16F003500410D8A4AAEF16F0ACEFC3
:102D520016F0B1EF16F0015008EC1BF0FEEF16F082
:102D620020EE04F00350D9260450DA22DE50DE10A1
:102D7200D8B4BEEF16F0C0EF16F0DBEF16F020EE7F
:102D820004F00350D9260450DA2210EE02F0035068
:102D9200E1260450E222DE50E65CE650800A096E2B
:102DA200DE50800A0958D8B0D9EF16F0DBEF16F0E2
:102DB200FEEF16F020EE02F00350D9260450DA227C
:102DC200DECF05F0DDCF06F003C0D9FF04C0DAFF85
:102DD200DECF07F0DDCF08F005500724D96E06508C
:102DE2000820DA6E01C0DFFF20EE02F00350D92680
:102DF2000450DA22DE2A000EDD2212000001D4A1E4
:102E020005EF17F007EF17F011EF17F013C00AF0F4
:102E120014C00BF011C00CF012C00DF020EC1AF02F
:102E220016BE16EF17F018EF17F01EEF17F015C0C9
:102E32001AF016C01BF022EF17F0000E1B6E000EE8
:102E42001A6E000E196E000E186E34EF17F0000E97
:102E5200026E200E016E11C003F012C004F09AEC53
:102E620016F0184A192A1A50185C1950800A176E5F
:102E72001B50800A1758D8A041EF17F043EF17F004
:102E820028EF17F00001D4B149EF17F04BEF17F01C
:102E920055EF17F013C00AF014C00BF011C00CF07C
:102EA20012C00DF020EC1AF013C001F014C002F0B1
:102EB20097EC1AF01A500124116E1B500220126E68
:102EC2001200000E066E04BE6BEF17F069EF17F0EA
:102ED20071EF17F0036C041ED8B0042A010E066EBF
:102EE20002BE78EF17F076EF17F07EEF17F0016C65
:102EF200021ED8B0022A010E061A000E086E000E3B
:102F0200076E03500410D8B489EF17F08BEF17F057
:102F1200B3EF17F0010E056E93EF17F0D89003365A
:102F22000436052A04AE98EF17F09AEF17F08FEFE8
:102F320017F0D890073608360350015C0450025847
:102F4200D8A0A6EF17F0A8EF17F0ADEF17F00350D7
:102F5200015E0450025A0780D89004320332052ED3
:102F62009AEF17F00650D8B4B9EF17F0BBEF17F08D
:102F7200BFEF17F0076C081ED8B0082A07C001F08F
:102F820008C002F01200000E066E02BECDEF17F06E
:102F9200CBEF17F0D3EF17F0016C021ED8B0022A64
:102FA200010E066E04BEDAEF17F0D8EF17F0DEEF6F
:102FB20017F0036C041ED8B0042A03500410D8B4CE
:102FC200E5EF17F0E7EF17F00BEF18F0010E056EC3
:102FD200EFEF17F0D89003360436052A04AEF4EF6B
:102FE20017F0F6EF17F0EBEF17F00350015C045007
:102FF2000258D8A0FFEF17F001EF18F005EF18F014
:103002000350015E0450025AD89004320332052E56
:10301200F6EF17F00650D8B411EF18F013EF18F0CE
:1030220017EF18F0016C021ED8B0022A01C001F09D
:1030320002C002F01200000E0114096E000E02140A
:103042000A6E800E03140B6E7F0E04140C6E095070
:103052000A100B100C10D8A431EF18F033EF18F04F
:103062003BEF18F0000E016E000E026E000E036EB2
:10307200000E046E000E0514096E000E06140A6E90
:10308200800E07140B6E7F0E08140C6E09500A1086
:103092000B100C10D8A450EF18F052EF18F05AEFA2
:1030A20018F0000E056E000E066E000E076E000E82
:1030B200086E055001180FE1065002180CE1075086
:1030C200031809E108500418D8B46AEF18F06CEF3D
:1030D20018F06FEF18F0D89070EF18F0D880120047
:1030E200630ECB6EDAC0D8F0DBC0D9F0D8C0BEFF19
:1030F2009492829294940001D9BF87EF18F0030E44
:10310200D95DD8A087EF18F089EF18F08FEF18F08B
:10311200000ED76F030ED66FB6EF18F0D9BF99EF36
:1031220018F0020ED95DD8A099EF18F09BEF18F0B5
:10313200A1EF18F0000ED76F020ED66FB6EF18F09F
:10314200D9BFAAEF18F0D905D8A0AAEF18F0ACEFB2
:1031520018F0B2EF18F0000ED76F010ED66FB6EF6F
:1031620018F0000ED76F000ED66F000ECA6ED65141
:10317200100DF3500C0FBD6E000ECC6ECA841200FF
:10318200A4C05DF0A5C05EF0000E0001CF6F000E7E
:10319200CE6FDFEF18F0A2C053F0A3C054F05D0E63
:1031A200556E000E566EA6C057F0A7C058F087ECB9
:1031B20010F053500001CE275450CF235DC0F6FFCC
:1031C2005EC0F7FF0800F5500009D8A4EBEF18F035
:1031D200EDEF18F0CCEF18F0CEC0A2F0CFC0A3F004
:1031E2001200BF0E096EFF0E0A6E07C00BF008C078
:1031F2000CF009500B260A500C220C500AE11A0E50
:103202000B5CD8A007EF19F00AEF19F0010E0BEFD3
:1032120019F0000E0D6E0E6A0D500E10D8B414EF98
:1032220019F016EF19F01DEF19F0200E0710076EB6
:103232000850086E21EF19F007C007F008C008F027
:10324200120092809494F9EC1AF042EC1AF004EC19
:103252001BF000EC1BF0010E036E080E046E51EC25
:1032620019F0000E046E000E036E000E066E020EC2
:10327200056ED7EC19F02A0E036E080E046E51EC9F
:1032820019F00FEC14F0820E5F6EDE0EE82EFED700
:103292005F2EFCD771EC18F042EF19F000EF00F04E
:1032A20067EF19F003C0F6FF04C0F7FFF86A070ED4
:1032B200F76403D00800F55005D0F6CFE1FFF7CF51
:1032C200E2FFE750CAEC1AF0034A042A03C0F6FFF1
:1032D20004C0F7FFF86A070EF76403D00800F55040
:1032E20005D0F6CFE1FFF7CFE2FFE7500009D8A4FF
:1032F2007DEF19F07FEF19F053EF19F0120003C0C0
:1033020007F004C008F001C009F002C00AF007503B
:10331200056E0850066E074A082A05C0F6FF06C069
:10332200F7FFF86A09C0D9FF0AC0DAFF094A0A2A78
:10333200070EF76403D00800F55005D0F6CFE1FF81
:10334200F7CFE2FFE750DF6EDF50D8A4ABEF19F002
:10335200ADEF19F088EF19F01200AC0E0001B26F58
:10336200000EB36FA8C0B4F0A9C0B5F0000EB76FDD
:10337200000EB66F000EB96F000EB86FB40EA26FDA
:10338200000EA36FAAC0A4F0ABC0A5F0B20EA66F48
:10339200000EA76FC1EC18F00001B651A825D96E36
:1033A200B751A921DA6E000EDF6E1200E3EF19F0B9
:1033B2000350800F096EF9EF19F00350C00F096E28
:1033C200F9EF19F005C007F006C008F00850000A2E
:1033D200D8B4EEEF19F0D9EF19F00750010AD8B4BA
:1033E200D9EF19F0030AD8B4DEEF19F0D9EF19F0CA
:1033F2000950B2EC1AF01200000E1E1A000E1F1A2B
:10340200000E201A800E211A1AC001F01BC002F011
:103412001CC003F01DC004F01EC005F01FC006F062
:1034220020C007F021C008F045EC0AF001C01AF0F4
:1034320002C01BF003C01CF004C01DF01200000EFD
:10344200106E000E0F6E31EF1AF00EC001F0026A1C
:103452000CC003F00DC004F09AEC16F00F4A102ACB
:103462000F500A24D96E10500B20DA6EDF500E6E08
:103472000E50D8A43FEF1AF041EF1AF026EF1AF0DF
:103482001200969096920F0E946E8D908D92000E71
:103492008B6E410E036EEE0EE82EFED7032EFCD786
:1034A20000D0020EB2EC1AF0280EB2EC1AF00C0E9A
:1034B200B2EC1AF0060EB2EC1AF01200BF0E036E56
:1034C200FF0E046E01C005F002C006F0035005268F
:1034D2000450062206500AE11A0E055CD8A074EFC9
:1034E2001AF077EF1AF0010E78EF1AF0000E016E63
:1034F200026A12000150021003100410D8B484EFC3
:103502001AF086EF1AF08EEF1AF0000E011A000E72
:10351200021A000E031A800E041A01C001F002C042
:1035220002F003C003F004C004F0120001C003F073
:1035320002C004F09FEF1AF0014A022A01C0D9FF2B
:1035420002C0DAFFDF50D8A4A9EF1AF0ABEF1AF0ED
:103552009DEF1AF00350015C016E04500258026E96
:103562001200026E8D900250F00B8B6EF0EC1AF08E
:1035720002C001F00F0E01160138F00B8B6EF0EC59
:103582001AF0030E016E980EE82EFED7012EFCD71C
:103592001200026E8D800250F00B8B6EF0EC1AF06E
:1035A20002C001F00F0E01160138F00B8B6EF0EC29
:1035B2001AF0100EE82EFED700D0120001EE00F035
:1035C200500EEE6AE806FDE100EEC6F0200EEE6A4D
:1035D200E806FDE1000EF86E000122EF19F08D827F
:1035E20000D000D000F08D9200D000D000F0120088
:1035F200000EC26E0E0EC16E940EC06E1200020E4E
:10360200B2EC1AF01200010EB2EC1AF01200120023
:020000040020DA
:08000000FFFFFFFFFFFFFFFF00
:020000040030CA
:0E00000000051F1FFF8385FF0FC00FE00F409C
:00000001FF
