:020000040000FA
:0400000075EF39F06F
:1072EA000001B5EF3AF0000E066E02BE81EF39F0EA
:1072FA007FEF39F087EF39F0016C021ED8B0022A0D
:10730A00010E066E04BE8EEF39F08CEF39F092EF63
:10731A0039F0036C041ED8B0042A03500410D8B400
:10732A0099EF39F09BEF39F0BFEF39F0010E056E96
:10733A00A3EF39F0D89003360436052A04AEA8EF35
:10734A0039F0AAEF39F09FEF39F00350015C04508D
:10735A000258D8A0B3EF39F0B5EF39F0B9EF39F0E8
:10736A000350015E0450025AD89004320332052EAB
:10737A00AAEF39F00650D8B4C5EF39F0C7EF39F0A3
:10738A00CBEF39F0016C021ED8B0022A01C001F01D
:10739A0002C002F01200000E066E04BED9EF39F0E8
:1073AA00D7EF39F0DFEF39F0036C041ED8B0042AA6
:1073BA00010E066E02BEE6EF39F0E4EF39F0ECEFAB
:1073CA0039F0016C021ED8B0022A010E061A000E0C
:1073DA00086E000E076E03500410D8B4F7EF39F0A8
:1073EA00F9EF39F021EF3AF0010E056E01EF3AF0AC
:1073FA00D89003360436052A04AE06EF3AF008EFB1
:10740A003AF0FDEF39F0D890073608360350015CA0
:10741A0004500258D8A014EF3AF016EF3AF01BEFD6
:10742A003AF00350015E0450025A0780D8900432A1
:10743A000332052E08EF3AF00650D8B427EF3AF097
:10744A0029EF3AF02DEF3AF0076C081ED8B0082A57
:10745A0007C001F008C002F01200433444344A6EF7
:10746A004A50D8A43BEF3AF03DEF3AF047EF3AF0F2
:10747A00000E416E000E426E000E436E000E446E08
:10748A00B4EF3AF041C045F042C046F043C047F07D
:10749A0044C048F0200E57EF3AF0D89048324732AD
:1074AA0046324532E82E52EF3AF04550496E438E45
:1074BA00FF0E4116FF0E4216FF0E4316000E44162B
:1074CA00960E4A5E4ABE6EEF3AF06CEF3AF084EFDF
:1074DA003AF04A50800A970FD8B076EF3AF078EF30
:1074EA003AF07AEF3AF03DEF3AF0D890443243322C
:1074FA00423241324A3E7AEF3AF09CEF3AF01F0E9E
:10750A004A648AEF3AF08CEF3AF094EF3AF03DEFA2
:10751A003AF0D89041364236433644364A064A5003
:10752A00D8A49AEF3AF09CEF3AF08EEF3AF049502D
:10753A00D8B4A2EF3AF0A4EF3AF0ACEF3AF0441E16
:10754A00431E421E416C000E42224322442241C085
:10755A0041F042C042F043C043F044C044F012003C
:10756A00070EC16E000E956E000E836E010E926EAE
:10757A00000E806E010EC26E940EC06E000E936EE7
:10758A00000E816EC30EC216C282C4504C6E4B6A84
:10759A00C3504B244D6E000E4C204E6E000E2C6EC6
:1075AA00000E2D6E480E2E6E420E2F6E000E136EBA
:1075BA00C00E146E7F0E156E440E166E4DC001F08D
:1075CA004EC002F0000E02BEFF0E036E046E010EE4
:1075DA0044EC3BF001C00FF002C010F003C011F000
:1075EA0004C012F01EEC3CF00FC028F010C029F0C5
:1075FA0011C02AF012C02BF0EBEC3DF028C041F08C
:10760A0029C042F02AC043F02BC044F032EC3AF0D1
:10761A0041C04FF042C050F04FC001F050C002F0DC
:10762A00000E046E0A0E036E78EC39F001C04BF0BE
:10763A0002C04CF04FC001F050C002F0000E046EC0
:10764A000A0E036ED0EC39F00150100DF3504B24A2
:10765A00836E50BE3CEF3BF0505007E1230E4F5C67
:10766A00D8B03AEF3BF03CEF3BF03FEF3BF0819074
:10767A00C7EF3AF08180C7EF3AF000EF00F0096EE9
:10768A000950D8B44BEF3BF04DEF3BF06FEF3BF0B6
:10769A0004BE54EF3BF052EF3BF06FEF3BF001C0FA
:1076AA0005F002C006F003C007F004C008F0051E8A
:1076BA00061E071E081E052A000E06220722082299
:1076CA0005C00BF006C00CF007C00DF008C00EF0A4
:1076DA0077EF3BF001C00BF002C00CF003C00DF0D5
:1076EA0004C00EF00150021003100410D8A480EF59
:1076FA003BF082EF3BF08CEF3BF0000E016E000E88
:10770A00026E000E036E000E046E1DEF3CF0960E24
:10771A000A6E96EF3BF00A2AD8900E320D320C32DE
:10772A000B32000E0B14056E000E0C14066E000EC2
:10773A000D14076EFE0E0E14086E05500610071083
:10774A000810D8A4ABEF3BF0ADEF3BF090EF3BF065
:10775A00BBEF3BF00A2A010E0B26000E0C220D226B
:10776A000E22D8900E320D320C320B32000E0B1450
:10777A00056E000E0C14066E000E0D14076EFF0E39
:10778A000E14086E0550061007100810D8A4D0EF82
:10779A003BF0D2EF3BF0AFEF3BF0DAEF3BF00A06FB
:1077AA00D8900B360C360D360E360DBEDFEF3BF099
:1077BA00E1EF3BF0E9EF3BF0020E0A60E7EF3BF046
:1077CA00E9EF3BF0D4EF3BF00AB0EEEF3BF0F0EF1D
:1077DA003BF0F1EF3BF00D9ED8900A320AC005F05B
:1077EA00066A076A086A05C008F0076A066A056A2F
:1077FA0005500B1206500C1207500D1208500E12AB
:10780A000950D8B40BEF3CF00DEF3CF015EF3CF00B
:10781A0004BE14EF3CF012EF3CF015EF3CF00E8E74
:10782A000BC001F00CC002F00DC003F00EC004F052
:10783A0012001250800B1F6E12501224266E11AEC7
:10784A0029EF3CF02BEF3CF02CEF3CF02680265041
:10785A00D8B432EF3CF034EF3CF049EF3CF0262844
:10786A00D8A43AEF3CF03CEF3CF044EF3CF0000E79
:10787A000F6E000E106E000E116E000E126E118E3B
:10788A00000E126E51EF3CF0000E0F6E000E106EDD
:10789A00000E116E000E126E1650800B1F1A165033
:1078AA001624276E15AE5CEF3CF05EEF3CF05FEFFE
:1078BA003CF027802750D8B465EF3CF067EF3CF0E6
:1078CA007CEF3CF02728D8A46DEF3CF06FEF3CF03A
:1078DA0077EF3CF0000E136E000E146E000E156E5C
:1078EA00000E166E158E000E166E84EF3CF0000E1A
:1078FA00136E000E146E000E156E000E166E1350E7
:10790A00141015101610D8A48DEF3CF08FEF3CF030
:10791A00A7EF3CF0000E0F6E000E106E000E116EF7
:10792A00000E126E800E11127F0E12121F501212CA
:10793A000FC00FF010C010F011C011F012C012F0F9
:10794A00EAEF3DF02650D8A4ADEF3CF0AFEF3CF0A3
:10795A00B9EF3CF0000E0F6E000E106E000E116EA5
:10796A00000E126EEAEF3DF0275026C017F0186A93
:10797A00175E000E185A7F0E1724206E000E18206C
:10798A00216E0FC01BF010C01CF011C01DF012C0F8
:10799A001EF0000E0F6E000E106E000E116E000E1D
:1079AA00126E000E226E000E236E000E246E000E62
:1079BA00256E000E276E1AEF3DF02750D8B4E8EF77
:1079CA003CF0EAEF3CF001EF3DF0D8901B361C3654
:1079DA001D361E36D8900F3610361136123625AEA1
:1079EA00F9EF3CF0FBEF3CF0FCEF3CF00F80D89055
:1079FA00223623362436253613501B5C14501C5865
:107A0A0015501D5816501E58D8A00EEF3DF010EF15
:107A1A003DF019EF3DF0258C13501B5E14501C5A93
:107A2A0015501D5A16501E5A272A190E276420EF80
:107A3A003DF022EF3DF0E2EF3CF01B501C101D1010
:107A4A001E10D8B42BEF3DF02DEF3DF045EF3DF081
:107A5A00228045EF3DF0D8900F3610361136123697
:107A6A0025AE3AEF3DF03CEF3DF03DEF3DF00F80A3
:107A7A00D89022362336243625362006D8A0210669
:107A8A0011AE4AEF3DF04CEF3DF030EF3DF0000E05
:107A9A00276E25AE53EF3DF055EF3DF079EF3DF0FF
:107AAA00FF0E2214176EFF0E2314186EFF0E2414F5
:107ABA00196E7F0E25141A6E1750181019101A1005
:107ACA00D8B46AEF3DF06CEF3DF070EF3DF0010E77
:107ADA00276E79EF3DF00FA075EF3DF077EF3DF09F
:107AEA0079EF3DF06CEF3DF02750D8B47FEF3DF0D1
:107AFA0081EF3DF0A5EF3DF0010E0F26000E10229A
:107B0A001122122212A08CEF3DF08EEF3DF0A5EF6C
:107B1A003DF00FC017F010C018F011C019F012C0D4
:107B2A001AF01A341A3219321832173217C00FF0F3
:107B3A0018C010F019C011F01AC012F0204A212AF8
:107B4A0021BEB0EF3DF0215008E12028D8A0B0EFC7
:107B5A003DF0B2EF3DF0BDEF3DF0000E216E206822
:107B6A00000E0F6E000E106E000E116E000E126ED9
:107B7A0021BECAEF3DF0215006E12004D8B0C8EF7B
:107B8A003DF0CAEF3DF0D8EF3DF0000E216E000E39
:107B9A00206E000E0F6E000E106E000E116E000E9B
:107BAA00126E000E1F6E20C026F026A0DFEF3DF0F9
:107BBA00E1EF3DF0E4EF3DF0118EE5EF3DF0119E6F
:107BCA00D8902630126E9BEF3CF012002B50800B9F
:107BDA00346E2B502B243A6E2AAEF6EF3DF0F8EFB6
:107BEA003DF0F9EF3DF03A803A50D8B4FFEF3DF05E
:107BFA0001EF3EF014EF3EF03A28D8A407EF3EF02A
:107C0A0009EF3EF011EF3EF0000E286E000E296ECD
:107C1A00000E2A6E000E2B6E2A8E1CEF3EF0000E0E
:107C2A00286E000E296E000E2A6E000E2B6E2F5043
:107C3A00800B341A2F502F24396E2EAE27EF3EF0C8
:107C4A0029EF3EF02AEF3EF039803950D8B430EFB0
:107C5A003EF032EF3EF045EF3EF03928D8A438EF37
:107C6A003EF03AEF3EF042EF3EF0000E2C6E000E70
:107C7A002D6E000E2E6E000E2F6E2E8E4DEF3EF0E4
:107C8A00000E2C6E000E2D6E000E2E6E000E2F6E44
:107C9A003950D8B453EF3EF055EF3EF05DEF3EF069
:107CAA003A50D8A45BEF3EF05DEF3EF067EF3EF04E
:107CBA00000E286E000E296E000E2A6E000E2B6E24
:107CCA00FFEF3FF02E502802F3CF3FF0F4CF40F001
:107CDA003F50356E366A376A386A40503B6E3C6AA6
:107CEA003D6A3E6A2D502902F3CF3FF0F4CF40F0AF
:107CFA003F503526000E36223722382240503B2686
:107D0A00000E3C223D223E222C502A02F3CF3FF0A5
:107D1A00F4CF40F03F503526000E36223722382263
:107D2A0040503B26000E3C223D223E2237C038F00E
:107D3A0036C037F035C036F0356A2C502902F3CFF9
:107D4A003FF0F4CF40F03F50352640503622000E27
:107D5A003722000E38222D502802F3CF3FF0F4CFFD
:107D6A0040F03F50352640503622000E3722000E92
:107D7A00382237C038F036C037F035C036F0356AA9
:107D8A002C502802F3CF3FF0F4CF40F03F50352675
:107D9A0040503622000E3722000E38222E50290279
:107DAA00F3CF3FF0F4CF40F03F503B2640503C2207
:107DBA00000E3D22000E3E222D502A02F3CF3FF044
:107DCA00F4CF40F03F503B2640503C22000E3D226B
:107DDA00000E3E222E502A02F3CF3FF0F4CF40F09D
:107DEA003F50306E4050316E326A336A32C033F0DF
:107DFA0031C032F030C031F0306A30503B26315059
:107E0A003C2232503D2233503E2235C030F036C03B
:107E1A0031F037C032F038C033F0190E1AEF3FF0A4
:107E2A00D8903332323231323032E82E15EF3FF009
:107E3A0030503B2631503C2232503D2233503E22B4
:107E4A0037C038F036C037F035C036F0356A3950A9
:107E5A003AC030F0316A3026000E3122820E3024C8
:107E6A003F6EFF0E3120406E50EF3FF0D8903B3608
:107E7A003C363D363E3638AE45EF3FF047EF3FF0F1
:107E8A0048EF3FF03B80D8903536363637363836AD
:107E9A003F06D8A040063DAE55EF3FF057EF3FF002
:107EAA003BEF3FF0000E396E38AE5EEF3FF060EF09
:107EBA003FF084EF3FF0FF0E3514306EFF0E36149C
:107ECA00316EFF0E3714326E7F0E3814336E305017
:107EDA00311032103310D8B475EF3FF077EF3FF01E
:107EEA007BEF3FF0010E396E84EF3FF03BA080EF4D
:107EFA003FF082EF3FF084EF3FF077EF3FF03950E9
:107F0A00D8B48AEF3FF08CEF3FF0B0EF3FF0010EAC
:107F1A003B26000E3C223D223E223EA097EF3FF038
:107F2A0099EF3FF0B0EF3FF03BC030F03CC031F08A
:107F3A003DC032F03EC033F0333433323232313264
:107F4A00303230C03BF031C03CF032C03DF033C07B
:107F5A003EF03F4A402A40BEBBEF3FF0405008E1A6
:107F6A003F28D8A0BBEF3FF0BDEF3FF0C7EF3FF08F
:107F7A00000E3B6E000E3C6E800E3D6E7F0E3E6E16
:107F8A00F5EF3FF040BED4EF3FF0405006E13F042A
:107F9A00D8B0D2EF3FF0D4EF3FF0E0EF3FF0000E61
:107FAA003B6E000E3C6E000E3D6E000E3E6E000EE5
:107FBA00346EF5EF3FF03FC03AF0FF0E3B16FF0E6E
:107FCA003C167F0E3D16000E3E163AA0EFEF3FF02C
:107FDA00F1EF3FF0F2EF3FF03D8ED8903A303E6E2F
:107FEA0034503E123BC028F03CC029F03DC02AF074
:067FFA003EC02BF0120056
:020000040020DA
:08000000FFFFFFFFFFFFFFFF00
:020000040030CA
:0E0000000085181EFF0181FF0FC00FE00F40AA
:00000001FF
