:020000040000FA
:04000000D0EF3DF010
:107BA000026A016A0001DFEF3DF00F0EC112040E00
:107BB000926E000E936E9492000E956E1200D5ECAC
:107BC0003DF0000E8C6E80A4E8EF3DF0EAEF3DF052
:107BD000ECEF3DF0014A022A01040210D8A4F3EFB1
:107BE0003DF0F5EF3DF029EF3EF0810E8C6E060E74
:107BF000046E130E036EAE0EE82EFED7032EFCD7D6
:107C0000042EFAD7420E8C6E060E046E130E036E0F
:107C1000AE0EE82EFED7032EFCD7042EFAD7240E84
:107C20008C6E060E046E130E036EAE0EE82EFED79B
:107C3000032EFCD7042EFAD7180E8C6E060E046E97
:107C4000130E036EAE0EE82EFED7032EFCD7042EC5
:107C5000FAD7020E01180210D8A431EF3EF033EF2C
:107C60003EF002EF3FF0000E8C6E060E046E130E17
:107C7000036EAE0EE82EFED7032EFCD7042EFAD7E5
:107C8000010E8A6E100E046E390E036E0E0EE82E73
:107C9000FED7032EFCD7042EFAD7030E8A6E100EE1
:107CA000046E390E036E0E0EE82EFED7032EFCD79F
:107CB000042EFAD7070E8A6E100E046E390E036E6C
:107CC0000E0EE82EFED7032EFCD7042EFAD70F0E89
:107CD0008A6E100E046E390E036E0E0EE82EFED75D
:107CE000032EFCD7042EFAD71F0E8A6E100E046ED8
:107CF000390E036E0E0EE82EFED7032EFCD7042E8F
:107D0000FAD73F0E8A6E100E046E390E036E0E0EF9
:107D1000E82EFED7032EFCD7042EFAD77F0E8A6EEC
:107D2000100E046E390E036E0E0EE82EFED7032ED3
:107D3000FCD7042EFAD78A68100E046E390E036E33
:107D40000E0EE82EFED7032EFCD7042EFAD7FE0E19
:107D50008A6E100E046E390E036E0E0EE82EFED7DC
:107D6000032EFCD7042EFAD7FC0E8A6E100E046E7A
:107D7000390E036E0E0EE82EFED7032EFCD7042E0E
:107D8000FAD7F80E8A6E100E046E390E036E0E0EC0
:107D9000E82EFED7032EFCD7042EFAD7F00E8A6EFB
:107DA000100E046E390E036E0E0EE82EFED7032E53
:107DB000FCD7042EFAD7E00E8A6E100E046E390E30
:107DC000036E0E0EE82EFED7032EFCD7042EFAD734
:107DD000C00E8A6E100E046E390E036E0E0EE82E63
:107DE000FED7032EFCD7042EFAD7800E8A6E100E13
:107DF000046E390E036E0E0EE82EFED7032EFCD74E
:107E0000042EFAD7030E01180210D8A40AEF3FF08F
:107E10000CEF3FF0DCEF3FF0000E896E060E046EB3
:107E2000130E036EAE0EE82EFED7032EFCD7042EE3
:107E3000FAD7010E896E060E046E130E036EAE0E97
:107E4000E82EFED7032EFCD7042EFAD7090E896E32
:107E5000060E046E130E036EAE0EE82EFED7032E32
:107E6000FCD7042EFAD7080E896E060E046E130E88
:107E7000036EAE0EE82EFED7032EFCD7042EFAD7E3
:107E8000180E896E060E046E130E036EAE0EE82EEB
:107E9000FED7032EFCD7042EFAD7190E896E060ED4
:107EA000046E130E036EAE0EE82EFED7032EFCD723
:107EB000042EFAD7110E896E060E046E130E036E91
:107EC000AE0EE82EFED7032EFCD7042EFAD7100EE6
:107ED000896E060E046E130E036EAE0EE82EFED7EC
:107EE000032EFCD7042EFAD7300E896E060E046ED0
:107EF000130E036EAE0EE82EFED7032EFCD7042E13
:107F0000FAD7310E896E060E046E130E036EAE0E96
:107F1000E82EFED7032EFCD7042EFAD7390E896E31
:107F2000060E046E130E036EAE0EE82EFED7032E61
:107F3000FCD7042EFAD7380E896E060E046E130E87
:107F4000036EAE0EE82EFED7032EFCD7042EFAD712
:107F5000280E896E060E046E130E036EAE0EE82E0A
:107F6000FED7032EFCD7042EFAD7290E896E060EF3
:107F7000046E130E036EAE0EE82EFED7032EFCD752
:107F8000042EFAD7210E896E060E046E130E036EB0
:107F9000AE0EE82EFED7032EFCD7042EFAD7200E05
:107FA000896E060E046E130E036EAE0EE82EFED71B
:107FB000032EFCD7042EFAD7040E01180210D8A401
:107FC000E4EF3FF0E6EF3FF0FEEF3FF08092060E69
:107FD000046E130E036EAE0EE82EFED7032EFCD7F2
:107FE000042EFAD78082060E046E130E036EAE0EB8
:107FF000E82EFED7032EFCD7042EFAD700EF00F0B0
:020000040020DA
:08000000FFFFFFFFFFFFFFFF00
:020000040030CA
:0E0000000005181EFF8385FF0FC00FE00F40A4
:00000001FF
