:020000040000FA
:040000008BEF1AF078
:100800000044757479204379636C653A0020202098
:1008100020202020202000494E46004E414E0069F5
:100820006E66006E616E006C660030250025660005
:0108300000C7
:10083200000E00017B6F000E7A6F49C08CF04AC037
:100842008DF04BC08EF04CC08FF08FBF2DEF04F0B7
:100852002BEF04F043EF04F0000E7B6F010E7A6F72
:100862008CC001F08DC002F08EC003F08FC004F086
:1008720027EC1AF001C08CF002C08DF003C08EF09C
:1008820004C08FF0000E0001936F000E926FD0C073
:100892007FF0D1C080F07A517B11D8A453EF04F0DD
:1008A20055EF04F05CEF04F0D4A55AEF04F05CEFCE
:1008B20004F076EF04F07A517B11D8A463EF04F0D0
:1008C20065EF04F06BEF04F0000E656F2B0E646FA2
:1008D2006FEF04F0000E656F2D0E646F64C000F1BF
:1008E200924B932B7F07D8A080078CC001F08DC05C
:1008F20002F08EC003F08FC004F05CEC15F001042E
:100902000210D8A487EF04F089EF04F0E0EF04F0BE
:10091200BF0E4E6EFF0E4F6E4D50506E516A4E50CE
:1009220050264F50512251500AE11A0E505CD8A065
:100932009DEF04F0A0EF04F0010EA1EF04F0000E11
:100942000001666F676B66516711D8B4ABEF04F0B4
:10095200ADEF04F0BBEF04F0000E9225016E010E24
:100962009321026E170E036E080E046E2CEC19F022
:10097200C7EF04F0000E9225016E010E9321026E64
:100982001F0E036E080E046E2CEC19F00001FD0E12
:100992007F27FF0E802347C011F048C012F0000EDF
:1009A200136E010E146E7FC015F080C016F0ABEC12
:1009B20016F011C047F012C048F0F0EF09F08CC0F9
:1009C20001F08DC002F08EC003F08FC004F05CEC29
:1009D20015F001500210D8A4F1EF04F0F3EF04F087
:1009E20033EF05F0BF0E4E6EFF0E4F6E4D50506E40
:1009F200516A4E5050264F50512251500AE11A0E60
:100A0200505CD8A007EF05F00AEF05F0010E0BEFDE
:100A120005F0000E0001686F696B68516911D8B466
:100A220015EF05F017EF05F025EF05F0000E922502
:100A3200016E010E9321026E1B0E036E080E046EF0
:100A42002CEC19F0C7EF04F0000E9225016E010E96
:100A52009321026E230E036E080E046E2CEC19F025
:100A6200C7EF04F0000E0001946F000E956F800E28
:100A7200966F3F0E976F000E916F000E906F8CC0B5
:100A820001F08DC002F08EC003F08FC004F0000EA2
:100A9200056E000E066E000E076E000E086EC8ECA4
:100AA20017F0D8B057EF05F059EF05F0DCEF05F07D
:100AB20078EF05F094C001F095C002F096C003F003
:100AC20097C004F0000E056E000E066E200E076E33
:100AD200410E086E51EC0CF001C094F002C095F08A
:100AE20003C096F004C097F00001904B912B8CC08C
:100AF2001AF08DC01BF08EC01CF08FC01DF0000ECE
:100B0200056E000E066E200E076E410E086E94C032
:100B120001F095C002F096C003F097C004F051ECCA
:100B22000CF001C01EF002C01FF003C020F004C090
:100B320021F0DAEC14F0D8B0A1EF05F0A3EF05F044
:100B42005BEF05F0C3EF05F094C01AF095C01BF0FF
:100B520096C01CF097C01DF0000E1E6E000E1F6E98
:100B6200200E206E410E216E66EC0EF01AC094F03B
:100B72001BC095F01CC096F01DC097F000019007B5
:100B8200D8A091078CC01AF08DC01BF08EC01CF04B
:100B92008FC01DF094C01EF095C01FF096C020F0CB
:100BA20097C021F0DAEC14F0D8A0DAEF05F0DCEF10
:100BB20005F0A5EF05F04DC007F0086A9EEC18F0AD
:100BC20007500001816F81C07EF0670E8119D8A4A1
:100BD200EDEF05F0EFEF05F015EF06F0D251D3116E
:100BE200D8A4F6EF05F0F8EF05F0FCEF05F0000EE3
:100BF200D36F010ED26FD3BF09EF06F0D35106E1D6
:100C0200D205D8B007EF06F009EF06F00FEF06F0B5
:100C1200000E7D6F060E7C6F1EEF06F0D2C07CF0D8
:100C2200D3C07DF01EEF06F0D3BF1AEF06F01CEF23
:100C320006F009EF06F00FEF06F0670E8119D8A44F
:100C420025EF06F027EF06F056EF06F091AF35EFED
:100C520006F0FC0E905DFF0E9159D8A033EF06F01E
:100C620035EF06F054EF06F0FF0E4E6EFF0E4F6E9C
:100C72007CC050F07DC051F04E5050264F50512252
:100C82009051505C5150800A526E9151800A5258D4
:100C9200D8A04EEF06F050EF06F054EF06F0660EC5
:100CA2007E6F56EF06F0650E7E6F7CC074F07DC0DD
:100CB20075F0670E8119D8A461EF06F063EF06F0B4
:100CC20073EF06F0660E7E19D8A46AEF06F06CEF99
:100CD20006F075EF06F091BF73EF06F071EF06F0C4
:100CE20075EF06F0744B752B660E7E19D8A47CEF57
:100CF20006F07EEF06F09EEF06F091BF85EF06F05C
:100D020083EF06F091EF06F0000E946F000E956FE0
:100D1200800E966F3F0E976F000E916F000E906FD0
:100D2200670E8119D8B498EF06F09AEF06F09EEF9D
:100D320006F09051742791517523000E8B6F000EAF
:100D42008A6F8CC082F08DC083F08EC084F08FC019
:100D520085F094C060F095C061F096C062F097C0D3
:100D620063F02FEF07F082C01AF083C01BF084C03B
:100D72001CF085C01DF094C01EF095C01FF096C0F7
:100D820020F097C021F066EC0EF01AC033F01BC0C1
:100D920034F01CC035F01DC036F0D8EC11F033C071
:100DA20086F034C087F035C088F036C089F086C03E
:100DB20001F087C002F088C003F089C004F057EC4C
:100DC20014F001C078F002C079F082C01AF083C03A
:100DD2001BF084C01CF085C01DF094C005F095C0C6
:100DE20006F096C007F097C008F086C001F087C0F1
:100DF20002F088C003F089C004F051EC0CF001C08D
:100E02001EF002C01FF003C020F004C021F0A9ECC4
:100E120019F01AC082F01BC083F01CC084F01DC000
:100E220085F094C01AF095C01BF096C01CF097C0D4
:100E32001DF0000E1E6E000E1F6E200E206E410E63
:100E4200216E66EC0EF01AC094F01BC095F01CC027
:100E520096F01DC097F000018A4B8B2B74518A5D6E
:100E62008B51800A4E6E7551800A4E58D8A03CEFC5
:100E720007F03EEF07F0B4EF06F094C001F095C022
:100E820002F096C003F097C004F0000E056E000E4B
:100E9200066EA00E076E400E086E51EC0CF001C0FB
:100EA20086F002C087F003C088F004C089F082C0D7
:100EB2001AF083C01BF084C01CF085C01DF086C0F0
:100EC2001EF087C01FF088C020F089C021F0DAEC44
:100ED20014F0D8B06FEF07F071EF07F07CEF07F076
:100EE200000E0001866F000E876F000E886F000EE5
:100EF200896FA5EF07F082C001F083C002F084C0C1
:100F020003F085C004F086C005F087C006F088C0F3
:100F120007F089C008F0C8EC17F0D8A093EF07F0EB
:100F220095EF07F0A5EF07F0000178B19BEF07F00E
:100F32009DEF07F0A5EF07F0000E866F000E876F9A
:100F4200000E886F000E896F8CC001F08DC002F018
:100F52008EC003F08FC004F086C005F087C006F093
:100F620088C007F089C008F0F1EC09F001C082F0F6
:100F720002C083F003C084F004C085F060C094F026
:100F820061C095F062C096F063C097F0650E0001F3
:100F92007E19D8B4CFEF07F0D1EF07F0D7EF07F003
:100FA20090C076F091C077F0DBEF07F0000E776F1C
:100FB200000E766F000E736F000E726F000E716F6F
:100FC200000E706F000E8B6F000E8A6FD6EF08F066
:100FD20082C01AF083C01BF084C01CF085C01DF0D3
:100FE20094C01EF095C01FF096C020F097C021F06B
:100FF20066EC0EF01AC033F01BC034F01CC035F0A2
:101002001DC036F0D8EC11F033C086F034C087F042
:1010120035C088F036C089F086C001F087C002F082
:1010220088C003F089C004F057EC14F001C078F0D6
:1010320002C079F00001D4B921EF08F023EF08F0E3
:1010420040EF08F078517911D8A42AEF08F02CEF7C
:1010520008F040EF08F0670E8119D8A433EF08F0CA
:1010620035EF08F040EF08F077BF3CEF08F03AEFB9
:1010720008F040EF08F0704B712B8AEF08F07251C4
:101082007311D8A447EF08F049EF08F073EF08F0A6
:1010920077BF50EF08F04EEF08F073EF08F0000E44
:1010A2009225D96E010E9321DA6E2E0EDF6E924BCF
:1010B200932B7F07D8A08007000E736F010E726F0B
:1010C20073EF08F0000E9225D96E010E9321DA6EAD
:1010D200300EDF6E924B932B7F07D8A080077007EC
:1010E200D8A0710770517111D8A47AEF08F07CEF83
:1010F20008F063EF08F0000E9225D96E010E9321DD
:10110200DA6E7851300FDF6E924B932B7F07D8A0A7
:10111200800782C01AF083C01BF084C01CF085C017
:101122001DF094C005F095C006F096C007F097C078
:1011320008F086C001F087C002F088C003F089C0C1
:1011420004F051EC0CF001C01EF002C01FF003C00D
:1011520020F004C021F0A9EC19F01AC082F01BC0E3
:1011620083F01CC084F01DC085F094C01AF095C0B5
:101172001BF096C01CF097C01DF0000E1E6E000EF4
:101182001F6E200E206E410E216E66EC0EF01AC00C
:1011920094F01BC095F01CC096F01DC097F00001A2
:1011A2007607D8A077078A4B8B2B74518A5D8B51B7
:1011B200800A4E6E7551800A4E58D8B0E3EF08F09F
:1011C200E5EF08F0F3EF08F093BFF1EF08F0935169
:1011D20009E14B0E925DD8A0F1EF08F0F3EF08F0B1
:1011E200E9EF07F072517311D8A4FAEF08F0FCEF9F
:1011F20008F00DEF09F0D4A901EF09F003EF09F0AF
:101202000DEF09F0000E9225D96E010E9321DA6ED0
:101212002E0EDF6E924B932B000E9225D96E010E8D
:101222009321DA6E000EDF6E650E7E19D8A41CEFD4
:1012320009F01EEF09F0CCEF04F0000E8B6F4F0E99
:101242008A6F000E8A25D96E010E8B21DA6E000E8E
:10125200DF6E000E7B6F000E7A6F91BF35EF09F0E3
:1012620033EF09F03DEF09F0000E7B6F010E7A6F4C
:10127200906D911FD8B0912B000E7D6F020E7C6F86
:101282006EEF09F08A07D8A08B07000E8A25D96E67
:10129200010E8B21DA6E90C001F091C002F0000EB7
:1012A200046E0A0E036E70EC17F00150300FDF6E01
:1012B20090C001F091C002F0000E046E0A0E036E9F
:1012C2000EEC17F001C090F002C091F000017C0713
:1012D200D8A07D077F07D8A0800790519111D8A48C
:1012E20075EF09F077EF09F043EF09F07DBF84EF66
:1012F20009F07D5106E17C05D8B082EF09F084EF58
:1013020009F043EF09F08A07D8A08B077A517B11C5
:10131200D8A48EEF09F090EF09F096EF09F0000ED5
:101322006B6F2B0E6A6F9AEF09F0000E6B6F2D0E2A
:101332006A6F000E8A25D96E010E8B21DA6E6AC0A1
:10134200DFFF7F07D8A080078A07D8A08B07BF0ED0
:101352004E6EFF0E4F6E4D50506E516A4E505026DB
:101362004F50512251500AE11A0E505CD8A0BCEFE6
:1013720009F0BFEF09F0010EC0EF09F0000E6E6F29
:101382006F6B6E516F11D8A4C9EF09F0CBEF09F062
:10139200D1EF09F0000E6D6F650E6C6FD5EF09F09D
:1013A200000E6D6F450E6C6F000E8A25D96E010E10
:1013B2008B21DA6E6CC0DFFF7F07D8A08007000E9A
:1013C2009225016E010E9321026E000E8A25036E94
:1013D200010E8B21046E2CEC19F0CCEF04F01200FC
:1013E2000450800B0D6E045004240F6E03AEFCEF0C
:1013F20009F0FEEF09F0FFEF09F00F800F50D8B4AB
:1014020005EF0AF007EF0AF01CEF0AF00F28D8A444
:101412000DEF0AF00FEF0AF017EF0AF0000E016E5F
:10142200000E026E000E036E000E046E038E000E9E
:10143200046E24EF0AF0000E016E000E026E000E22
:10144200036E000E046E0850800B0E6E0D500E18C7
:10145200D8B42EEF0AF030EF0AF031EF0AF00D8C1B
:10146200085008240E6E07AE39EF0AF03BEF0AF07F
:101472003CEF0AF00E800E50D8B442EF0AF044EF6F
:101482000AF059EF0AF00E28D8A44AEF0AF04CEFFE
:101492000AF054EF0AF0000E056E000E066E000E02
:1014A200076E000E086E078E000E086E61EF0AF0DE
:1014B200000E056E000E066E000E076E000E086E20
:1014C2000F500E5CD8B068EF0AF06AEF0AF091EFA5
:1014D2000AF00DAC6FEF0AF071EF0AF073EF0AF049
:1014E200800E0D1A0FC010F00EC00FF010C00EF0DB
:1014F20001C010F005C001F010C005F002C010F0EC
:1015020006C002F010C006F003C010F007C003F0DE
:1015120010C007F004C010F008C004F010C008F0BA
:10152200000E106E0F500EC009F00A6A095E000E1E
:101532000A5A0ABEA6EF0AF00A5009E11A0E095C1D
:10154200D8A0A6EF0AF0A8EF0AF0DFEF0AF00150E8
:10155200021003100410D8A4B1EF0AF0B4EF0AF09D
:10156200010EB5EF0AF0000E106E000E016E000EB5
:10157200026E000E036E000E046E0EC00FF0E8EF56
:101582000AF010A0C7EF0AF0C9EF0AF0CFEF0AF095
:10159200D89010300109106ED1EF0AF0D8901032B5
:1015A20001A0D6EF0AF0D8EF0AF0D9EF0AF0108EB8
:1015B200043404320332023201320F2A0E500F5C1D
:1015C200D8A0E6EF0AF0E8EF0AF0C2EF0AF00DBC8D
:1015D200EDEF0AF0EFEF0AF02FEF0BF00F50D8A467
:1015E200F5EF0AF0F7EF0AF001EF0BF0000E016ED3
:1015F200000E026E000E036E000E046E50EF0CF031
:1016020005500126065002220750032208500422E8
:1016120004A00EEF0BF010EF0BF0BCEF0BF010A0DC
:1016220015EF0BF017EF0BF01DEF0BF0D890103009
:101632000109106E1FEF0BF0D890103201A024EFB9
:101642000BF026EF0BF027EF0BF0108E0434043270
:101652000332023201320F2ABCEF0BF00550015C5B
:1016620006500258075003580450800A096E085069
:10167200800A0958D8B040EF0BF042EF0BF06DEF43
:101682000BF00150055C096E025006580A6E0350B9
:1016920007580B6E045008580C6EFF0E0924016E99
:1016A200FF0E0A20026EFF0E0B20036EFF0E0C20AF
:1016B200046E800E0D1A106C1050D8A463EF0BF05C
:1016C20065EF0BF075EF0BF0010E0126000E022202
:1016D2000322042275EF0BF00550015E0650025AF8
:1016E2000750035A0850045A015002100310041004
:1016F200D8A47EEF0BF080EF0BF0B5EF0BF010509B
:10170200D8A486EF0BF088EF0BF0B5EF0BF0000ECC
:10171200016E000E026E000E036E000E046E50EF9C
:101722000CF0D890013602360336043610AE9CEF28
:101732000BF09EEF0BF09FEF0BF0018010A0A4EFD7
:101742000BF0A6EF0BF0AAEF0BF0D8801036ACEF3F
:101752000BF0D89010360F50D8B4B2EF0BF0B4EFB4
:101762000BF0B5EF0BF00F0603AEBAEF0BF0BCEFC8
:101772000BF092EF0BF0000E0E6E10AEC3EF0BF0FB
:10178200C5EF0BF0DDEF0BF010C009F07F0E09166C
:10179200D8B4CEEF0BF0D0EF0BF0D4EF0BF0010E7C
:1017A2000E6EDDEF0BF001A0D9EF0BF0DBEF0BF0CB
:1017B200DDEF0BF0D0EF0BF00E50D8B4E3EF0BF0EF
:1017C200E5EF0BF010EF0CF0010E0126000E0222E5
:1017D2000322042204A0F0EF0BF0F2EF0BF010EF63
:1017E2000CF001C009F002C00AF003C00BF004C003
:1017F2000CF00C340C320B320A32093209C001F0FF
:101802000AC002F00BC003F00CC004F00F28D8B4D9
:101812000DEF0CF00FEF0CF010EF0CF00F2A0F2869
:10182200D8B416EF0CF018EF0CF020EF0CF00F50BC
:10183200D8A41EEF0CF020EF0CF032EF0CF0000EEB
:10184200016E000E026E000E036E000E046E0F504B
:10185200D8A42EEF0CF030EF0CF032EF0CF0000EAB
:101862000D6E0FA037EF0CF039EF0CF03CEF0CF0DF
:10187200038E3DEF0CF0039ED8900F30046E0DAE38
:1018820045EF0CF047EF0CF048EF0CF0048E01C06E
:1018920001F002C002F003C003F004C004F0120021
:1018A2000450800B0D6E04500424136E03AE5CEFE3
:1018B2000CF05EEF0CF05FEF0CF013801350D8B415
:1018C20065EF0CF067EF0CF07AEF0CF01328D8A458
:1018D2006DEF0CF06FEF0CF077EF0CF0000E016E75
:1018E200000E026E000E036E000E046E038E82EF77
:1018F2000CF0000E016E000E026E000E036E000E62
:10190200046E0850800B0D1A08500824126E07AEA0
:101912008DEF0CF08FEF0CF090EF0CF01280125064
:10192200D8B496EF0CF098EF0CF0ABEF0CF0122855
:10193200D8A49EEF0CF0A0EF0CF0A8EF0CF0000E74
:10194200056E000E066E000E076E000E086E078E04
:10195200B3EF0CF0000E056E000E066E000E076E61
:10196200000E086E1250D8B4B9EF0CF0BBEF0CF0B9
:10197200C3EF0CF01350D8A4C1EF0CF0C3EF0CF07E
:10198200CDEF0CF0000E016E000E026E000E036E23
:10199200000E046E65EF0EF007500102F3CF18F04F
:1019A200F4CF19F018500E6E0F6A106A116A1950AE
:1019B200146E156A166A176A06500202F3CF18F0FF
:1019C200F4CF19F018500E26000E0F221022112209
:1019D20019501426000E1522162217220550030252
:1019E200F3CF18F0F4CF19F018500E26000E0F2284
:1019F2001022112219501426000E15221622172227
:101A020010C011F00FC010F00EC00FF00E6A05509A
:101A12000202F3CF18F0F4CF19F018500E26195025
:101A22000F22000E1022000E112206500102F3CFE7
:101A320018F0F4CF19F018500E2619500F22000E8C
:101A42001022000E112210C011F00FC010F00EC0B3
:101A52000FF00E6A05500102F3CF18F0F4CF19F01F
:101A620018500E2619500F22000E1022000E1122BD
:101A720007500202F3CF18F0F4CF19F018501426D1
:101A820019501522000E1622000E172206500302CC
:101A9200F3CF18F0F4CF19F018501426195015226C
:101AA200000E1622000E172207500302F3CF18F081
:101AB200F4CF19F01850096E19500A6E0B6A0C6AAD
:101AC2000BC00CF00AC00BF009C00AF0096A0950F9
:101AD20014260A5015220B5016220C5017220EC043
:101AE20009F00FC00AF010C00BF011C00CF0190E73
:101AF20080EF0DF0D8900C320B320A320932E82E08
:101B02007BEF0DF0095014260A5015220B501622B5
:101B12000C50172210C011F00FC010F00EC00FF0C1
:101B22000E6A125013C009F00A6A0926000E0A2230
:101B3200820E0924186EFF0E0A20196EB6EF0DF000
:101B4200D890143615361636173611AEABEF0DF0A7
:101B5200ADEF0DF0AEEF0DF01480D8900E360F36CB
:101B6200103611361806D8A0190616AEBBEF0DF0C6
:101B7200BDEF0DF0A1EF0DF0000E126E11AEC4EF2D
:101B82000DF0C6EF0DF0EAEF0DF0FF0E0E14096E28
:101B9200FF0E0F140A6EFF0E10140B6E7F0E11143F
:101BA2000C6E09500A100B100C10D8B4DBEF0DF0BC
:101BB200DDEF0DF0E1EF0DF0010E126EEAEF0DF028
:101BC20014A0E6EF0DF0E8EF0DF0EAEF0DF0DDEF17
:101BD2000DF01250D8B4F0EF0DF0F2EF0DF016EF59
:101BE2000EF0010E1426000E15221622172217A03F
:101BF200FDEF0DF0FFEF0DF016EF0EF014C009F03F
:101C020015C00AF016C00BF017C00CF00C340C32E1
:101C12000B320A32093209C014F00AC015F00BC0A7
:101C220016F00CC017F0184A192A19BE21EF0EF04F
:101C3200195008E11828D8A021EF0EF023EF0EF07A
:101C42002DEF0EF0000E146E000E156E800E166E45
:101C52007F0E176E5BEF0EF019BE3AEF0EF01950C1
:101C620006E11804D8B038EF0EF03AEF0EF046EF66
:101C72000EF0000E146E000E156E000E166E000EA3
:101C8200176E000E0D6E5BEF0EF018C013F0FF0E14
:101C92001416FF0E15167F0E1616000E171613A039
:101CA20055EF0EF057EF0EF058EF0EF0168ED8905B
:101CB2001330176E0D50171214C001F015C002F048
:101CC20016C003F017C004F012001D50800B2A6EDC
:101CD2001D501D24316E1CAE71EF0EF073EF0EF02D
:101CE20074EF0EF031803150D8B47AEF0EF07CEF01
:101CF2000EF091EF0EF03128D8A482EF0EF084EFAF
:101D02000EF08CEF0EF0000E1A6E000E1B6E000E1F
:101D12001C6E000E1D6E1C8E000E1D6E99EF0EF0D5
:101D2200000E1A6E000E1B6E000E1C6E000E1D6E53
:101D32002150800B2A1A21502124326E20AEA4EFAA
:101D42000EF0A6EF0EF0A7EF0EF032803250D8B4AC
:101D5200ADEF0EF0AFEF0EF0C4EF0EF03228D8A4C4
:101D6200B5EF0EF0B7EF0EF0BFEF0EF0000E1E6EE5
:101D7200000E1F6E000E206E000E216E208E000ED1
:101D8200216ECCEF0EF0000E1E6E000E1F6E000EC6
:101D9200206E000E216E1E501F1020102110D8A49C
:101DA200D5EF0EF0D7EF0EF0EFEF0EF0000E1A6E39
:101DB200000E1B6E000E1C6E000E1D6E800E1C129D
:101DC2007F0E1D122A501D121AC01AF01BC01BF0E2
:101DD2001CC01CF01DC01DF032EF10F03150D8A411
:101DE200F5EF0EF0F7EF0EF001EF0FF0000E1A6EA6
:101DF200000E1B6E000E1C6E000E1D6E32EF10F0F8
:101E0200325031C022F0236A225E000E235A7F0E26
:101E120022242B6E000E23202C6E1AC026F01BC02B
:101E220027F01CC028F01DC029F0000E1A6E000E0B
:101E32001B6E000E1C6E000E1D6E000E2D6E000E2F
:101E42002E6E000E2F6E000E306E000E326E62EF9E
:101E52000FF03250D8B430EF0FF032EF0FF049EFFD
:101E62000FF0D8902636273628362936D8901A36DB
:101E72001B361C361D3630AE41EF0FF043EF0FF02C
:101E820044EF0FF01A80D8902D362E362F3630368A
:101E92001E50265C1F502758205028582150295880
:101EA200D8A056EF0FF058EF0FF061EF0FF0308C23
:101EB2001E50265E1F50275A2050285A2150295A58
:101EC200322A190E326468EF0FF06AEF0FF02AEF30
:101ED2000FF02650271028102910D8B473EF0FF0F6
:101EE20075EF0FF08DEF0FF02D808DEF0FF0D89082
:101EF2001A361B361C361D3630AE82EF0FF084EFD9
:101F02000FF085EF0FF01A80D8902D362E362F362F
:101F120030362B06D8A02C061CAE92EF0FF094EFB1
:101F22000FF078EF0FF0000E326E30AE9BEF0FF035
:101F32009DEF0FF0C1EF0FF0FF0E2D14226EFF0E7A
:101F42002E14236EFF0E2F14246E7F0E3014256E76
:101F52002250231024102510D8B4B2EF0FF0B4EFA2
:101F62000FF0B8EF0FF0010E326EC1EF0FF01AA0B2
:101F7200BDEF0FF0BFEF0FF0C1EF0FF0B4EF0FF0B6
:101F82003250D8B4C7EF0FF0C9EF0FF0EDEF0FF0FA
:101F9200010E1A26000E1B221C221D221DA0D4EFA8
:101FA2000FF0D6EF0FF0EDEF0FF01AC022F01BC0CA
:101FB20023F01CC024F01DC025F025342532243224
:101FC2002332223222C01AF023C01BF024C01CF09C
:101FD20025C01DF02B4A2C2A2CBEF8EF0FF02C50F6
:101FE20008E12B28D8A0F8EF0FF0FAEF0FF005EF79
:101FF20010F0000E2C6E2B68000E1A6E000E1B6E77
:10200200000E1C6E000E1D6E2CBE12EF10F02C5036
:1020120006E12B04D8B010EF10F012EF10F020EF11
:1020220010F0000E2C6E000E2B6E000E1A6E000EBB
:102032001B6E000E1C6E000E1D6E000E2A6E2BC053
:1020420031F031A027EF10F029EF10F02CEF10F053
:102052001C8E2DEF10F01C9ED89031301D6EE3EFD8
:102062000EF0120055C0D9FF56C0DAFFDECFF6FFE0
:10207200DDCFF7FF0800F550250AD8A443EF10F092
:1020820045EF10F0BCEF11F055C0D9FF56C0DAFF92
:10209200DE2A000EDD22000E0001D16F000ED06F8D
:1020A200D0C0D4F0D1C0D5F0D269D36955C0D9FF20
:1020B20056C0DAFFDECFF6FFDDCFF7FF0800F5509E
:1020C200076E086A9EEC18F0075000019E6F9E5141
:1020D200D8B46EEF10F070EF10F0AAEF10F055C008
:1020E200D9FF56C0DAFFDECF59F0DDCF5AF0010E2C
:1020F2005926000E5A2259C0F6FF5AC0F7FF0800AF
:10210200F550076E086A9EEC18F0075000019F6FA9
:102112009F51D8B48FEF10F091EF10F0AAEF10F0AA
:1021220055C0D9FF56C0DAFFDECF59F0DDCF5AF0E5
:10213200020E5926000E5A2259C0F6FF5AC0F7FF66
:102142000800F550076E086A9EEC18F0075000016F
:10215200A06F660E9E19D8A4B1EF10F0B3EF10F085
:10216200F3EF10F055C0D9FF56C0DAFFDECFF6FF0D
:10217200DDCFF7FF0800F5CFA1F055C0D9FF56C05B
:10218200DAFFDE2A000EDD2257C0D9FF58C0DAFF7F
:10219200DFCF59F0040EDE26DFCF5AF0000EDD222B
:1021A20059C0D9FF5AC0DAFFDECF9AF0DECF9BF0DA
:1021B200DECF9CF0DECF9DF053C047F054C048F014
:1021C2009AC049F09BC04AF09CC04BF09DC04CF0B5
:1021D200A1C04DF019EC04F047C053F048C054F0D0
:1021E200D7EF11F09E0E016E000E026E270E036EE7
:1021F200080E046E000E066E020E056EDBEC15F084
:1022020001500210D8A408EF11F00AEF11F086EF86
:1022120011F055C0D9FF56C0DAFFDECF59F0DDCF3D
:102222005AF0010E5926000E5A2259C0F6FF5AC022
:10223200F7FF0800F5CFA1F0BF0E596EFF0E5A6EE0
:1022420055C0D9FF56C0DAFFDECFF6FFDDCFF7FF6C
:102252000800F5505B6E5C6A59505B265A505C224E
:102262005C500AE11A0E5B5CD8A03AEF11F03DEF28
:1022720011F0010E3EEF11F0000E0001986F996B04
:1022820098519911D8B448EF11F04AEF11F064EF68
:1022920011F057C0D9FF58C0DAFFDFCF59F0040E52
:1022A200DE26DFCF5AF0000EDD2259C0D9FF5AC018
:1022B200DAFFDECF9AF0DECF9BF0DECF9CF0DECFEE
:1022C2009DF07CEF11F057C0D9FF58C0DAFFDFCF85
:1022D20059F0040EDE26DFCF5AF0000EDD2259C07F
:1022E200D9FF5AC0DAFFDECF9AF0DECF9BF0DECF05
:1022F2009CF0DECF9DF0020E55C0D9FF56C0DAFF2A
:10230200DE26000EDD22DDEF10F055C0D9FF56C0EB
:10231200DAFFDECFF6FFDDCFF7FF0800F550250A22
:10232200D8A496EF11F098EF11F0AFEF11F055C06D
:10233200D9FF56C0DAFFDE2A000EDD22000E026E41
:10234200250E016E53C003F054C004F046EC16F0A3
:10235200000E546E010E536ED7EF11F055C0D9FF27
:1023620056C0DAFFDE2A000EDD22000E546E000E89
:10237200536ED7EF11F055C0D9FF56C0DAFFDECF4A
:10238200F6FFDDCFF7FF0800F550016E026A53C079
:1023920003F054C004F046EC16F055C0D9FF56C005
:1023A200DAFFDE2A000EDD22A9EF11F01200C6C00C
:1023B20043F0C7C044F0C8C045F0C9C046F033C0BE
:1023C20043F034C044F035C045F036C046F0810ECB
:1023D200376EFF0E386E43C039F044C03AF045C044
:1023E2003BF046C03CF0180EFCEF11F0D8903C32A6
:1023F2003B323A323932E82EF7EF11F039503724B6
:10240200416E000E3820426E42BE11EF12F0425071
:1024120009E1170E415CD8A011EF12F013EF12F090
:102422001DEF12F033C033F034C034F035C035F054
:1024320036C036F0E0EF12F042BE22EF12F024EF87
:1024420012F094EF12F041C037F0FF0E386EFF0E1B
:10245200396E7F0E3A6E000E3B6E376633EF12F026
:102462003BEF12F03B343B323A3239323832372EBC
:102472002EEF12F038C03DF039C03EF03AC03FF0C6
:102482003BC040F03D504314376E3E504414386E0A
:102492003F504514396E405046143A6E375038104A
:1024A20039103A10D8A458EF12F05AEF12F05CEF3C
:1024B20012F013EF12F043C037F044C038F045C0B9
:1024C20039F046C03AF0200E6CEF12F0D8903A3252
:1024D200393238323732E82E67EF12F0375038107F
:1024E20039103A10D8B478EF12F07AEF12F082EF86
:1024F20012F03D5043263E5044223F504522405068
:1025020046223D1C376E3E1C386E3F1C396E401C05
:102512003A6E3750431638504416395045163A50E1
:102522004616D8EF12F043C037F044C038F045C029
:1025320039F046C03AF0200EA4EF12F0D8903A32A9
:10254200393238323732E82E9FEF12F037503810D6
:1025520039103A10D8A4B0EF12F0B2EF12F0BCEF7B
:1025620012F0000E436E000E446E000E456E000E19
:10257200466ED8EF12F0D8904334376E4434386E3A
:102582004534396E46343A6E3750381039103A10A5
:10259200D8B4CEEF12F0D0EF12F0D8EF12F0000E56
:1025A200436E000E446E800E456EBF0E466E43C0F3
:1025B20033F044C034F045C035F046C036F0120066
:1025C200096E0950D8B4E8EF12F0EAEF12F00CEFFE
:1025D20013F004BEF1EF12F0EFEF12F00CEF13F074
:1025E20001C005F002C006F003C007F004C008F005
:1025F200051E061E071E081E052A000E06220722B9
:10260200082205C00BF006C00CF007C00DF008C090
:102612000EF014EF13F001C00BF002C00CF003C077
:102622000DF004C00EF00150021003100410D8A4E3
:102632001DEF13F01FEF13F029EF13F0000E016EE0
:10264200000E026E000E036E000E046EBAEF13F05F
:10265200960E0A6E33EF13F00A2AD8900E320D321C
:102662000C320B32000E0B14056E000E0C14066EAB
:10267200000E0D14076EFE0E0E14086E05500610A5
:1026820007100810D8A448EF13F04AEF13F02DEF0B
:1026920013F058EF13F00A2A010E0B26000E0C223B
:1026A2000D220E22D8900E320D320C320B32000E59
:1026B2000B14056E000E0C14066E000E0D14076E40
:1026C200FF0E0E14086E0550061007100810D8A44D
:1026D2006DEF13F06FEF13F04CEF13F077EF13F091
:1026E2000A06D8900B360C360D360E360DBE7CEF30
:1026F20013F07EEF13F086EF13F0020E0A6084EF00
:1027020013F086EF13F071EF13F00AB08BEF13F0B2
:102712008DEF13F08EEF13F00D9ED8900A320AC09F
:1027220005F0066A076A086A05C008F0076A066AC1
:10273200056A05500B1206500C1207500D12085074
:102742000E120950D8B4A8EF13F0AAEF13F0B2EFAB
:1027520013F004BEB1EF13F0AFEF13F0B2EF13F0CA
:102762000E8E0BC001F00CC002F00DC003F00EC0C3
:1027720004F01200C280C2824FEF14F0000E00017A
:10278200C26F000EC36F000EC46F000EC56FC4503F
:10279200BB6FBA6BC350BC6FBD6BBA51BC27BB5188
:1027A200BD23BCC001F0BDC002F0000E02BEFF0E90
:1027B200036E046E010EE1EC12F001C0BEF002C025
:1027C200BFF003C0C0F004C0C1F0000E056E000EE1
:1027D200066EC80E076E420E086EBEC001F0BFC084
:1027E20002F0C0C003F0C1C004F051EC0CF001C013
:1027F2001AF002C01BF003C01CF004C01DF0000E52
:102802001E6EC00E1F6E7F0E206E440E216E66EC91
:102812000EF01AC0C2F01BC0C3F01CC0C4F01DC031
:10282200C5F0C2C001F0C3C002F0C4C003F0C5C00D
:1028320004F057EC14F001C0DAF002C0DBF0DC0E59
:102842000001A86F000EA96F2D0EAA6F080EAB6FC4
:10285200C2C0ACF0C3C0ADF0C4C0AEF0C5C0AFF0F2
:102862005AEC19F0000E046E000E036E000E066E96
:10287200020E056E83EC19F0DC0E036E000E046E80
:10288200FDEC18F02B0E036E080E046EFDEC18F032
:102892000D0E036E080E046EFDEC18F0C2B254EF7A
:1028A20014F056EF14F0BFEF13F0120003340434A7
:1028B2000A6E0A50D8A460EF14F062EF14F06CEFC5
:1028C20014F0000E016E000E026E000E036E000E7A
:1028D200046ED9EF14F001C005F002C006F003C087
:1028E20007F004C008F0200E7CEF14F0D8900832F4
:1028F200073206320532E82E77EF14F00550096EE2
:10290200038EFF0E0116FF0E0216FF0E0316000EB7
:102912000416960E0A5E0ABE93EF14F091EF14F0BD
:10292200A9EF14F00A50800A970FD8B09BEF14F069
:102932009DEF14F09FEF14F062EF14F0D890043280
:102942000332023201320A3E9FEF14F0C1EF14F05B
:102952001F0E0A64AFEF14F0B1EF14F0B9EF14F0E8
:1029620062EF14F0D89001360236033604360A06B6
:102972000A50D8A4BFEF14F0C1EF14F0B3EF14F073
:102982000950D8B4C7EF14F0C9EF14F0D1EF14F026
:10299200041E031E021E016C000E022203220422E8
:1029A20001C001F002C002F003C003F004C004F051
:1029B2001200000E1A14226E000E1B14236E800EDB
:1029C2001C14246E7F0E1D14256E22502310241019
:1029D2002510D8A4EFEF14F0F1EF14F0F9EF14F092
:1029E200000E1A6E000E1B6E000E1C6E000E1D6E87
:1029F200000E1E14226E000E1F14236E800E201471
:102A0200246E7F0E2114256E2250231024102510CF
:102A1200D8A40EEF15F010EF15F018EF15F0000E18
:102A22001E6E000E1F6E000E206E000E216E1DAE79
:102A32001DEF15F01FEF15F028EF15F01A6C1B1E95
:102A4200D8B01B2A1C1ED8B01C2A800E1D5621AEDF
:102A52002DEF15F02FEF15F038EF15F01E6C1F1E3D
:102A6200D8B01F2A201ED8B0202A800E2156000E70
:102A72001A1A000E1B1A000E1C1A800E1D1A000EC6
:102A82001E1A000E1F1A000E201A800E211A1E5046
:102A92001A5C1F501B5820501C5821501D58D8B08A
:102AA20055EF15F057EF15F05AEF15F0D8905BEF90
:102AB20015F0D8801200CAC00BF0CBC00CF0CCC00D
:102AC2000DF0CDC00EF001C00BF002C00CF003C03F
:102AD2000DF004C00EF00BC005F00CC006F00DC0E6
:102AE20007F00EC008F0180E7CEF15F0D8900832EF
:102AF200073206320532E82E77EF15F00550096EDF
:102B02000A6A09500A10D8A489EF15F08BEF15F064
:102B1200ABEF15F0D8900B34056E0C34066E0D3405
:102B2200076E0E34086E0550061007100810D8A460
:102B32009DEF15F09FEF15F0A5EF15F0000E026E58
:102B4200020E016EDAEF15F0000E026E030E016E38
:102B5200DAEF15F009280A10D8A4B2EF15F0B4EF95
:102B620015F0D6EF15F00BC005F00CC006F00DC045
:102B720007F00EC008F0090ED89005360636073663
:102B82000836E82EBDEF15F00550061007100810A4
:102B9200D8B4CEEF15F0D1EF15F0010ED2EF15F04B
:102BA200000E016E026ADAEF15F0000E026E040EDC
:102BB200016E120001C008F002C009F003C00AF061
:102BC20004C00BF00506D8A00606052806E1062873
:102BD200D8A4EEEF15F0F0EF15F0FDEF15F0000EB2
:102BE200026E000E016E45EF16F0084A092A0A4AE3
:102BF2000B2A0506D8A0060608C0D9FF09C0DAFFCD
:102C0200DF50D8B407EF16F009EF16F034EF16F0E4
:102C12000AC0F6FF0BC0F7FF0800F5500009D8B450
:102C220015EF16F017EF16F034EF16F005500610F8
:102C3200D8B41EEF16F020EF16F034EF16F008C0ED
:102C4200D9FF09C0DAFFDF50076E0AC0F6FF0BC0DA
:102C5200F7FF0800F5500718D8B432EF16F034EF3A
:102C620016F0F6EF15F008C0D9FF09C0DAFFDF5001
:102C7200076E0AC0F6FF0BC0F7FF0800F550075CAD
:102C8200016E026AD8A00206120003500410D8B4E2
:102C92004DEF16F04FEF16F058EF16F003500410F8
:102CA200D8A456EF16F058EF16F05DEF16F001506B
:102CB200B4EC1AF0AAEF16F020EE04F00350D92675
:102CC2000450DA22DE50DE10D8B46AEF16F06CEF50
:102CD20016F087EF16F020EE04F00350D9260450C8
:102CE200DA2210EE02F00350E1260450E222DE5016
:102CF200E65CE650800A096EDE50800A0958D8B0B8
:102D020085EF16F087EF16F0AAEF16F020EE02F02C
:102D12000350D9260450DA22DECF05F0DDCF06F0CB
:102D220003C0D9FF04C0DAFFDECF07F0DDCF08F021
:102D320005500724D96E06500820DA6E01C0DFFF65
:102D420020EE02F00350D9260450DA22DE2A000EC9
:102D5200DD2212000001D4A1B1EF16F0B3EF16F09C
:102D6200BDEF16F013C00AF014C00BF011C00CF046
:102D720012C00DF0CCEC19F016BEC2EF16F0C4EF83
:102D820016F0CAEF16F015C01AF016C01BF0CEEFFF
:102D920016F0000E1B6E000E1A6E000E196E000E5B
:102DA200186EE0EF16F0000E026E200E016E11C0DA
:102DB20003F012C004F046EC16F0184A192A1A5011
:102DC200185C1950800A176E1B50800A1758D8A039
:102DD200EDEF16F0EFEF16F0D4EF16F00001D4B1DC
:102DE200F5EF16F0F7EF16F001EF17F013C00AF047
:102DF20014C00BF011C00CF012C00DF0CCEC19F0A5
:102E020013C001F014C002F043EC1AF01A5001246E
:102E1200116E1B500220126E1200000E066E04BECE
:102E220017EF17F015EF17F01DEF17F0036C041EE4
:102E3200D8B0042A010E066E02BE24EF17F022EF6C
:102E420017F02AEF17F0016C021ED8B0022A010E09
:102E5200061A000E086E000E076E03500410D8B456
:102E620035EF17F037EF17F05FEF17F0010E056E31
:102E72003FEF17F0D89003360436052A04AE44EF2C
:102E820017F046EF17F03BEF17F0D89007360836E9
:102E92000350015C04500258D8A052EF17F054EFCF
:102EA20017F059EF17F00350015E0450025A0780E1
:102EB200D89004320332052E46EF17F00650D8B4EC
:102EC20065EF17F067EF17F06BEF17F0076C081E4E
:102ED200D8B0082A07C001F008C002F01200000EA4
:102EE200066E02BE79EF17F077EF17F07FEF17F05B
:102EF200016C021ED8B0022A010E066E04BE86EFD5
:102F020017F084EF17F08AEF17F0036C041ED8B0A5
:102F1200042A03500410D8B491EF17F093EF17F07E
:102F2200B7EF17F0010E056E9BEF17F0D89003363E
:102F32000436052A04AEA0EF17F0A2EF17F097EFC0
:102F420017F00350015C04500258D8A0ABEF17F001
:102F5200ADEF17F0B1EF17F00350015E0450025AC3
:102F6200D89004320332052EA2EF17F00650D8B4DF
:102F7200BDEF17F0BFEF17F0C3EF17F0016C021EA1
:102F8200D8B0022A01C001F002C002F01200000E05
:102F92000114096E000E02140A6E800E03140B6EE9
:102FA2007F0E04140C6E09500A100B100C10D8A4DA
:102FB200DDEF17F0DFEF17F0E7EF17F0000E016E0D
:102FC200000E026E000E036E000E046E000E05145B
:102FD200096E000E06140A6E800E07140B6E7F0E29
:102FE20008140C6E09500A100B100C10D8A4FCEF38
:102FF20017F0FEEF17F006EF18F0000E056E000E48
:10300200066E000E076E000E086E055001180FE1E5
:10301200065002180CE10750031809E10850041881
:10302200D8B416EF18F018EF18F01BEF18F0D8907C
:103032001CEF18F0D8801200630ECB6EDAC0D8F005
:10304200DBC0D9F0D8C0BEFF949282929494000162
:10305200D9BF33EF18F0030ED95DD8A033EF18F0C3
:1030620035EF18F03BEF18F0000ED76F030ED66F56
:1030720062EF18F0D9BF45EF18F0020ED95DD8A063
:1030820045EF18F047EF18F04DEF18F0000ED76F2C
:10309200020ED66F62EF18F0D9BF56EF18F0D905BD
:1030A200D8A056EF18F058EF18F05EEF18F0000EA7
:1030B200D76F010ED66F62EF18F0000ED76F000EB9
:1030C200D66F000ECA6ED651100DF3500C0FBD6EA6
:1030D200000ECC6ECA841200A4C05DF0A5C05EF0E2
:1030E200000E0001CF6F000ECE6F8BEF18F0A2C062
:1030F20053F0A3C054F05D0E556E000E566EA6C07E
:1031020057F0A7C058F033EC10F053500001CE270F
:103112005450CF235DC0F6FF5EC0F7FF0800F550A4
:103122000009D8A497EF18F099EF18F078EF18F08B
:10313200CEC0A2F0CFC0A3F01200BF0E096EFF0EE8
:103142000A6E07C00BF008C00CF009500B260A509B
:103152000C220C500AE11A0E0B5CD8A0B3EF18F047
:10316200B6EF18F0010EB7EF18F0000E0D6E0E6AF2
:103172000D500E10D8B4C0EF18F0C2EF18F0C9EF1E
:1031820018F0200E0710076E0850086ECDEF18F0E9
:1031920007C007F008C008F0120092809494A5ECD2
:1031A2001AF0EEEC19F0B0EC1AF0ACEC1AF0010ED9
:1031B200036E080E046EFDEC18F0000E046E000E95
:1031C200036E000E066E020E056E83EC19F02A0ED7
:1031D200036E080E046EFDEC18F0BBEC13F0820EC9
:1031E2005F6EDE0EE82EFED75F2EFCD71DEC18F0C8
:1031F200EEEF18F000EF00F013EF19F003C0F6FF46
:1032020004C0F7FFF86A070EF76403D00800F55010
:1032120005D0F6CFE1FFF7CFE2FFE75076EC1AF0E8
:10322200034A042A03C0F6FF04C0F7FFF86A070E38
:10323200F76403D00800F55005D0F6CFE1FFF7CFD1
:10324200E2FFE7500009D8A429EF19F02BEF19F09B
:10325200FFEF18F0120003C007F004C008F001C02D
:1032620009F002C00AF00750056E0850066E074AC0
:10327200082A05C0F6FF06C0F7FFF86A09C0D9FFA1
:103282000AC0DAFF094A0A2A070EF76403D00800C7
:10329200F55005D0F6CFE1FFF7CFE2FFE750DF6E42
:1032A200DF50D8A457EF19F059EF19F034EF19F0A5
:1032B2001200AC0E0001B26F000EB36FA8C0B4F0E2
:1032C200A9C0B5F0000EB76F000EB66F000EB96F51
:1032D200000EB86FB40EA26F000EA36FAAC0A4F0C6
:1032E200ABC0A5F0B20EA66F000EA76F6DEC18F082
:1032F2000001B651A825D96EB751A921DA6E000E88
:10330200DF6E12008FEF19F00350800F096EA5EFE8
:1033120019F00350C00F096EA5EF19F005C007F0B0
:1033220006C008F00850000AD8B49AEF19F085EFE9
:1033320019F00750010AD8B485EF19F0030AD8B47E
:103342008AEF19F085EF19F009505EEC1AF01200BD
:10335200000E1E1A000E1F1A000E201A800E211ACD
:103362001AC001F01BC002F01CC003F01DC004F023
:103372001EC005F01FC006F020C007F021C008F0F3
:10338200F1EC09F001C01AF002C01BF003C01CF0FE
:1033920004C01DF01200000E106E000E0F6EDDEF65
:1033A20019F00EC001F0026A0CC003F00DC004F067
:1033B20046EC16F00F4A102A0F500A24D96E10500C
:1033C2000B20DA6EDF500E6E0E50D8A4EBEF19F020
:1033D200EDEF19F0D2EF19F01200969096920F0EBF
:1033E200946E8D908D92000E8B6E410E036EEE0EDA
:1033F200E82EFED7032EFCD700D0020E5EEC1AF0A8
:10340200280E5EEC1AF00C0E5EEC1AF0060E5EEC64
:103412001AF01200BF0E036EFF0E046E01C005F01B
:1034220002C006F0035005260450062206500AE1A7
:103432001A0E055CD8A020EF1AF023EF1AF0010E45
:1034420024EF1AF0000E016E026A120001500210FF
:1034520003100410D8B430EF1AF032EF1AF03AEF3A
:103462001AF0000E011A000E021A000E031A800E44
:10347200041A01C001F002C002F003C003F004C04C
:1034820004F0120001C003F002C004F04BEF1AF086
:10349200014A022A01C0D9FF02C0DAFFDF50D8A4D4
:1034A20055EF1AF057EF1AF049EF1AF00350015C8A
:1034B200016E04500258026E1200026E8D9002508C
:1034C200F00B8B6E9CEC1AF002C001F00F0E01168D
:1034D2000138F00B8B6E9CEC1AF0030E016E980E05
:1034E200E82EFED7012EFCD71200026E8D8002500C
:1034F200F00B8B6E9CEC1AF002C001F00F0E01165D
:103502000138F00B8B6E9CEC1AF0100EE82EFED7F1
:1035120000D0120001EE00F0500EEE6AE806FDE166
:1035220000EEC6F0200EEE6AE806FDE1000EF86E2F
:103532000001CEEF18F08D8200D000D000F08D9205
:1035420000D000D000F01200000EC26E0E0EC16E4E
:10355200940EC06E1200020E5EEC1AF01200010E02
:083562005EEC1AF012001200E9
:020000040020DA
:08000000FFFFFFFFFFFFFFFF00
:020000040030CA
:0E00000000051F1FFF8385FF0FC00FE00F409C
:00000001FF
