:020000040000FA
:0400000036EF3FF0A8
:107E58003F0006005B004F0066006D007D002700B4
:107E68007F006F00580EF66E7E0EF76E000EF86EED
:107E780000EE01F010EE14F00900F5CFEEFFE5502A
:107E8800E150FAE11A6A196A186A176A166A156AD5
:107E980000014FEF3FF00F0EC16E030E926E000E01
:107EA800956E000E936E16BE63EF3FF0165009E113
:107EB8001E0E155CD8A063EF3FF065EF3FF067EF4B
:107EC8003FF08094808616BE75EF3FF0165007E1AC
:107ED8001E0E155CD8B073EF3FF075EF3FF077EFEB
:107EE8003FF08084809680A07CEF3FF07EEF3FF0EB
:107EF8008EEF3FF0194A1A2A154A162A020E1C6EEE
:107F0800860E1B6E990EE82EFED71B2EFCD71C2E54
:107F1800FAD700F01ABE9AEF3FF01A5009E10A0E9C
:107F2800195CD8A09AEF3FF09CEF3FF0A2EF3FF02A
:107F3800000E1A6E000E196E174A182A18BEAEEFF8
:107F48003FF0185009E10A0E175CD8A0AEEF3FF0D9
:107F5800B0EF3FF0B4EF3FF0000E186E000E176E52
:107F6800D8901934D96E1A34DA6E010ED926000E5B
:107F7800DA22DF508C6ED8901734D96E1834DA6E46
:107F8800010ED926000EDA22DF508A6E80A2CFEFCA
:107F98003FF0D1EF3FF0E3EF3FF01906D8A01A0603
:107FA8001506D8A01606020E1C6E860E1B6E990EBC
:107FB800E82EFED71B2EFCD71C2EFAD700F01ABECF
:107FC800EAEF3FF0E8EF3FF0F1EF3FF0000E1A6EF6
:107FD800090E196E1706D8A0180618BEF8EF3FF05C
:107FE800F6EF3FF057EF3FF0000E186E090E176ED0
:087FF80057EF3FF000EF00F02D
:020000040020DA
:08000000FFFFFFFFFFFFFFFF00
:020000040030CA
:0E00000000001F1FFF8385FF0FC00FE00F40A1
:00000001FF
